{
  "_format": "hh-sol-artifact-1",
  "contractName": "MarketPlace",
  "sourceName": "src/contracts/MarketPlace.sol",
  "abi": [
    {
      "inputs": [
        {
          "internalType": "uint256",
          "name": "_feePercent",
          "type": "uint256"
        }
      ],
      "stateMutability": "nonpayable",
      "type": "constructor"
    },
    {
      "anonymous": false,
      "inputs": [
        {
          "indexed": false,
          "internalType": "uint256",
          "name": "itemId",
          "type": "uint256"
        },
        {
          "indexed": true,
          "internalType": "address",
          "name": "nft",
          "type": "address"
        },
        {
          "indexed": false,
          "internalType": "uint256",
          "name": "tokenId",
          "type": "uint256"
        },
        {
          "indexed": false,
          "internalType": "uint256",
          "name": "price",
          "type": "uint256"
        },
        {
          "indexed": true,
          "internalType": "address",
          "name": "seller",
          "type": "address"
        },
        {
          "indexed": true,
          "internalType": "address",
          "name": "buyer",
          "type": "address"
        }
      ],
      "name": "Bought",
      "type": "event"
    },
    {
      "anonymous": false,
      "inputs": [
        {
          "indexed": false,
          "internalType": "uint256",
          "name": "itemId",
          "type": "uint256"
        },
        {
          "indexed": true,
          "internalType": "address",
          "name": "nft",
          "type": "address"
        },
        {
          "indexed": false,
          "internalType": "uint256",
          "name": "tokenId",
          "type": "uint256"
        },
        {
          "indexed": false,
          "internalType": "uint256",
          "name": "price",
          "type": "uint256"
        },
        {
          "indexed": true,
          "internalType": "address",
          "name": "seller",
          "type": "address"
        }
      ],
      "name": "Offered",
      "type": "event"
    },
    {
      "anonymous": false,
      "inputs": [
        {
          "indexed": false,
          "internalType": "uint256",
          "name": "itemId",
          "type": "uint256"
        },
        {
          "indexed": true,
          "internalType": "address",
          "name": "nft",
          "type": "address"
        },
        {
          "indexed": false,
          "internalType": "uint256",
          "name": "tokenId",
          "type": "uint256"
        },
        {
          "indexed": false,
          "internalType": "uint256",
          "name": "price",
          "type": "uint256"
        },
        {
          "indexed": false,
          "internalType": "uint256",
          "name": "rewarded",
          "type": "uint256"
        },
        {
          "indexed": false,
          "internalType": "uint256",
          "name": "totalReward",
          "type": "uint256"
        },
        {
          "indexed": true,
          "internalType": "address",
          "name": "seller",
          "type": "address"
        },
        {
          "indexed": true,
          "internalType": "address",
          "name": "rewarder",
          "type": "address"
        }
      ],
      "name": "Rewarded",
      "type": "event"
    },
    {
      "anonymous": false,
      "inputs": [
        {
          "indexed": false,
          "internalType": "uint256",
          "name": "itemId",
          "type": "uint256"
        },
        {
          "indexed": true,
          "internalType": "address",
          "name": "nft",
          "type": "address"
        },
        {
          "indexed": false,
          "internalType": "uint256",
          "name": "tokenId",
          "type": "uint256"
        },
        {
          "indexed": false,
          "internalType": "uint256",
          "name": "price",
          "type": "uint256"
        },
        {
          "indexed": true,
          "internalType": "address",
          "name": "seller",
          "type": "address"
        }
      ],
      "name": "SellAgain",
      "type": "event"
    },
    {
      "anonymous": false,
      "inputs": [
        {
          "indexed": false,
          "internalType": "uint256",
          "name": "itemId",
          "type": "uint256"
        },
        {
          "indexed": true,
          "internalType": "address",
          "name": "nft",
          "type": "address"
        },
        {
          "indexed": false,
          "internalType": "uint256",
          "name": "tokenId",
          "type": "uint256"
        },
        {
          "indexed": true,
          "internalType": "address",
          "name": "seller",
          "type": "address"
        },
        {
          "indexed": true,
          "internalType": "address",
          "name": "tokenOwner",
          "type": "address"
        }
      ],
      "name": "auctionCanceled",
      "type": "event"
    },
    {
      "anonymous": false,
      "inputs": [
        {
          "indexed": false,
          "internalType": "uint256",
          "name": "itemId",
          "type": "uint256"
        },
        {
          "indexed": true,
          "internalType": "address",
          "name": "nft",
          "type": "address"
        },
        {
          "indexed": false,
          "internalType": "uint256",
          "name": "tokenId",
          "type": "uint256"
        },
        {
          "indexed": false,
          "internalType": "uint128",
          "name": "basePrice",
          "type": "uint128"
        },
        {
          "indexed": true,
          "internalType": "address",
          "name": "seller",
          "type": "address"
        },
        {
          "indexed": false,
          "internalType": "uint256",
          "name": "duration",
          "type": "uint256"
        }
      ],
      "name": "auctionCreated",
      "type": "event"
    },
    {
      "anonymous": false,
      "inputs": [
        {
          "indexed": false,
          "internalType": "uint256",
          "name": "itemId",
          "type": "uint256"
        },
        {
          "indexed": true,
          "internalType": "address",
          "name": "nft",
          "type": "address"
        },
        {
          "indexed": false,
          "internalType": "uint256",
          "name": "tokenId",
          "type": "uint256"
        },
        {
          "indexed": false,
          "internalType": "uint256",
          "name": "maxBidPrice",
          "type": "uint256"
        },
        {
          "indexed": true,
          "internalType": "address",
          "name": "seller",
          "type": "address"
        },
        {
          "indexed": true,
          "internalType": "address",
          "name": "maxBidder",
          "type": "address"
        }
      ],
      "name": "auctionDeal",
      "type": "event"
    },
    {
      "anonymous": false,
      "inputs": [
        {
          "indexed": false,
          "internalType": "uint256",
          "name": "itemId",
          "type": "uint256"
        },
        {
          "indexed": true,
          "internalType": "address",
          "name": "nft",
          "type": "address"
        },
        {
          "indexed": false,
          "internalType": "uint256",
          "name": "tokenId",
          "type": "uint256"
        },
        {
          "indexed": true,
          "internalType": "address",
          "name": "seller",
          "type": "address"
        },
        {
          "indexed": true,
          "internalType": "address",
          "name": "tokenOwner",
          "type": "address"
        }
      ],
      "name": "sellCancelled",
      "type": "event"
    },
    {
      "inputs": [
        {
          "internalType": "uint256",
          "name": "_itemId",
          "type": "uint256"
        },
        {
          "internalType": "uint128",
          "name": "_basePrice",
          "type": "uint128"
        },
        {
          "internalType": "uint256",
          "name": "_duration",
          "type": "uint256"
        }
      ],
      "name": "auctionItem",
      "outputs": [],
      "stateMutability": "nonpayable",
      "type": "function"
    },
    {
      "inputs": [
        {
          "internalType": "uint256",
          "name": "_itemId",
          "type": "uint256"
        }
      ],
      "name": "bid",
      "outputs": [],
      "stateMutability": "payable",
      "type": "function"
    },
    {
      "inputs": [
        {
          "internalType": "uint256",
          "name": "",
          "type": "uint256"
        },
        {
          "internalType": "address",
          "name": "",
          "type": "address"
        }
      ],
      "name": "bids",
      "outputs": [
        {
          "internalType": "uint256",
          "name": "",
          "type": "uint256"
        }
      ],
      "stateMutability": "view",
      "type": "function"
    },
    {
      "inputs": [
        {
          "internalType": "uint256",
          "name": "_itemId",
          "type": "uint256"
        }
      ],
      "name": "cancelAuction",
      "outputs": [],
      "stateMutability": "nonpayable",
      "type": "function"
    },
    {
      "inputs": [
        {
          "internalType": "uint256",
          "name": "_itemId",
          "type": "uint256"
        }
      ],
      "name": "cancelSell",
      "outputs": [],
      "stateMutability": "nonpayable",
      "type": "function"
    },
    {
      "inputs": [],
      "name": "currentAddress",
      "outputs": [
        {
          "internalType": "address",
          "name": "",
          "type": "address"
        }
      ],
      "stateMutability": "view",
      "type": "function"
    },
    {
      "inputs": [
        {
          "internalType": "uint256",
          "name": "_itemId",
          "type": "uint256"
        }
      ],
      "name": "executeSale",
      "outputs": [],
      "stateMutability": "nonpayable",
      "type": "function"
    },
    {
      "inputs": [],
      "name": "feeAccount",
      "outputs": [
        {
          "internalType": "address payable",
          "name": "",
          "type": "address"
        }
      ],
      "stateMutability": "view",
      "type": "function"
    },
    {
      "inputs": [],
      "name": "feePercent",
      "outputs": [
        {
          "internalType": "uint256",
          "name": "",
          "type": "uint256"
        }
      ],
      "stateMutability": "view",
      "type": "function"
    },
    {
      "inputs": [
        {
          "internalType": "uint256",
          "name": "_itemId",
          "type": "uint256"
        }
      ],
      "name": "getAuctionDetails",
      "outputs": [
        {
          "components": [
            {
              "internalType": "address payable",
              "name": "seller",
              "type": "address"
            },
            {
              "internalType": "uint128",
              "name": "basePrice",
              "type": "uint128"
            },
            {
              "internalType": "uint256",
              "name": "duration",
              "type": "uint256"
            },
            {
              "internalType": "uint256",
              "name": "maxBid",
              "type": "uint256"
            },
            {
              "internalType": "address payable",
              "name": "maxBidUser",
              "type": "address"
            },
            {
              "internalType": "bool",
              "name": "isActive",
              "type": "bool"
            },
            {
              "internalType": "uint256[]",
              "name": "bidAmounts",
              "type": "uint256[]"
            },
            {
              "internalType": "address[]",
              "name": "users",
              "type": "address[]"
            }
          ],
          "internalType": "struct MarketPlace.auctionDetails",
          "name": "",
          "type": "tuple"
        }
      ],
      "stateMutability": "view",
      "type": "function"
    },
    {
      "inputs": [
        {
          "internalType": "uint256",
          "name": "_itemId",
          "type": "uint256"
        }
      ],
      "name": "getTotalPrice",
      "outputs": [
        {
          "internalType": "uint256",
          "name": "",
          "type": "uint256"
        }
      ],
      "stateMutability": "view",
      "type": "function"
    },
    {
      "inputs": [],
      "name": "itemCount",
      "outputs": [
        {
          "internalType": "uint256",
          "name": "",
          "type": "uint256"
        }
      ],
      "stateMutability": "view",
      "type": "function"
    },
    {
      "inputs": [
        {
          "internalType": "uint256",
          "name": "",
          "type": "uint256"
        }
      ],
      "name": "itemToAuction",
      "outputs": [
        {
          "internalType": "address payable",
          "name": "seller",
          "type": "address"
        },
        {
          "internalType": "uint128",
          "name": "basePrice",
          "type": "uint128"
        },
        {
          "internalType": "uint256",
          "name": "duration",
          "type": "uint256"
        },
        {
          "internalType": "uint256",
          "name": "maxBid",
          "type": "uint256"
        },
        {
          "internalType": "address payable",
          "name": "maxBidUser",
          "type": "address"
        },
        {
          "internalType": "bool",
          "name": "isActive",
          "type": "bool"
        }
      ],
      "stateMutability": "view",
      "type": "function"
    },
    {
      "inputs": [
        {
          "internalType": "uint256",
          "name": "",
          "type": "uint256"
        }
      ],
      "name": "items",
      "outputs": [
        {
          "internalType": "uint256",
          "name": "itemId",
          "type": "uint256"
        },
        {
          "internalType": "contract IERC721",
          "name": "nft",
          "type": "address"
        },
        {
          "internalType": "uint256",
          "name": "tokenId",
          "type": "uint256"
        },
        {
          "internalType": "uint256",
          "name": "price",
          "type": "uint256"
        },
        {
          "internalType": "address payable",
          "name": "seller",
          "type": "address"
        },
        {
          "internalType": "address payable",
          "name": "developer",
          "type": "address"
        },
        {
          "internalType": "bool",
          "name": "sold",
          "type": "bool"
        },
        {
          "internalType": "uint256",
          "name": "totalReward",
          "type": "uint256"
        },
        {
          "internalType": "bool",
          "name": "inAuction",
          "type": "bool"
        }
      ],
      "stateMutability": "view",
      "type": "function"
    },
    {
      "inputs": [
        {
          "internalType": "contract IERC721",
          "name": "_nft",
          "type": "address"
        },
        {
          "internalType": "uint256",
          "name": "_tokenId",
          "type": "uint256"
        },
        {
          "internalType": "uint256",
          "name": "_price",
          "type": "uint256"
        }
      ],
      "name": "makeItem",
      "outputs": [],
      "stateMutability": "nonpayable",
      "type": "function"
    },
    {
      "inputs": [
        {
          "internalType": "uint256",
          "name": "_itemId",
          "type": "uint256"
        }
      ],
      "name": "purchaseItem",
      "outputs": [],
      "stateMutability": "payable",
      "type": "function"
    },
    {
      "inputs": [
        {
          "internalType": "uint256",
          "name": "_itemId",
          "type": "uint256"
        }
      ],
      "name": "reward",
      "outputs": [],
      "stateMutability": "payable",
      "type": "function"
    },
    {
      "inputs": [
        {
          "internalType": "uint256",
          "name": "_itemId",
          "type": "uint256"
        },
        {
          "internalType": "uint256",
          "name": "_price",
          "type": "uint256"
        }
      ],
      "name": "sellItem",
      "outputs": [],
      "stateMutability": "nonpayable",
      "type": "function"
    }
  ],
  "bytecode": "0x60c0604052662386f26fc100006002553480156200001c57600080fd5b506040516200545b3803806200545b8339818101604052810190620000429190620000a7565b60016000819055503373ffffffffffffffffffffffffffffffffffffffff1660808173ffffffffffffffffffffffffffffffffffffffff1660601b815250508060a0818152505050620000f7565b600081519050620000a181620000dd565b92915050565b600060208284031215620000ba57600080fd5b6000620000ca8482850162000090565b91505092915050565b6000819050919050565b620000e881620000d3565b8114620000f457600080fd5b50565b60805160601c60a0516153186200014360003960008181610f960152818161139801528181611c360152612ebd01526000818161136e01528181611cec015261347601526153186000f3fe6080604052600436106101095760003560e01c806396b5a75511610095578063c63282c811610064578063c63282c81461035a578063ca7dd37514610383578063d38ea5bf146103c0578063f20e5e35146103dc578063fa00afc71461041957610109565b806396b5a755146102a75780639b1225c4146102d0578063a9fb763c146102f9578063bfb231d21461031557610109565b806365e17c9d116100dc57806365e17c9d146101b95780636bfb0d01146101e45780637fd6f15c1461020f57806380bc38c21461023a57806381bf47181461027c57610109565b806307c9cd451461010e5780632d923561146101375780633f1ffcec14610160578063454a2ab31461019d575b600080fd5b34801561011a57600080fd5b5061013560048036038101906101309190614095565b610442565b005b34801561014357600080fd5b5061015e60048036038101906101599190614149565b6108ad565b005b34801561016c57600080fd5b50610187600480360381019061018291906140be565b610d0d565b60405161019491906149fc565b60405180910390f35b6101b760048036038101906101b29190614095565b610d32565b005b3480156101c557600080fd5b506101ce61136c565b6040516101db9190614690565b60405180910390f35b3480156101f057600080fd5b506101f9611390565b60405161020691906149fc565b60405180910390f35b34801561021b57600080fd5b50610224611396565b60405161023191906149fc565b60405180910390f35b34801561024657600080fd5b50610261600480360381019061025c9190614095565b6113ba565b604051610273969594939291906146ab565b60405180910390f35b34801561028857600080fd5b5061029161145f565b60405161029e9190614675565b60405180910390f35b3480156102b357600080fd5b506102ce60048036038101906102c99190614095565b611467565b005b3480156102dc57600080fd5b506102f760048036038101906102f29190614095565b6119eb565b005b610313600480360381019061030e9190614095565b612188565b005b34801561032157600080fd5b5061033c60048036038101906103379190614095565b6123f2565b60405161035199989796959493929190614a17565b60405180910390f35b34801561036657600080fd5b50610381600480360381019061037c91906140fa565b6124ba565b005b34801561038f57600080fd5b506103aa60048036038101906103a59190614095565b612eb7565b6040516103b791906149fc565b60405180910390f35b6103da60048036038101906103d59190614095565b612f1a565b005b3480156103e857600080fd5b5061040360048036038101906103fe9190614095565b6136c2565b60405161041091906149da565b60405180910390f35b34801561042557600080fd5b50610440600480360381019061043b9190614046565b613aca565b005b8060006003600083815260200190815260200160002060405180610120016040529081600082015481526020016001820160009054906101000a900473ffffffffffffffffffffffffffffffffffffffff1673ffffffffffffffffffffffffffffffffffffffff1673ffffffffffffffffffffffffffffffffffffffff16815260200160028201548152602001600382015481526020016004820160009054906101000a900473ffffffffffffffffffffffffffffffffffffffff1673ffffffffffffffffffffffffffffffffffffffff1673ffffffffffffffffffffffffffffffffffffffff1681526020016005820160009054906101000a900473ffffffffffffffffffffffffffffffffffffffff1673ffffffffffffffffffffffffffffffffffffffff1673ffffffffffffffffffffffffffffffffffffffff1681526020016005820160149054906101000a900460ff16151515158152602001600682015481526020016007820160009054906101000a900460ff1615151515815250509050806080015173ffffffffffffffffffffffffffffffffffffffff163373ffffffffffffffffffffffffffffffffffffffff1614610638576040517f08c379a000000000000000000000000000000000000000000000000000000000815260040161062f9061491a565b60405180910390fd5b60006003600085815260200190815260200160002090508060010160009054906101000a900473ffffffffffffffffffffffffffffffffffffffff1673ffffffffffffffffffffffffffffffffffffffff166323b872dd308360040160009054906101000a900473ffffffffffffffffffffffffffffffffffffffff1684600201546040518463ffffffff1660e01b81526004016106d89392919061470c565b600060405180830381600087803b1580156106f257600080fd5b505af1158015610706573d6000803e3d6000fd5b5050505060018160050160146101000a81548160ff02191690831515021790555060008160010160009054906101000a900473ffffffffffffffffffffffffffffffffffffffff1673ffffffffffffffffffffffffffffffffffffffff16636352211e83600201546040518263ffffffff1660e01b815260040161078a91906149fc565b60206040518083038186803b1580156107a257600080fd5b505afa1580156107b6573d6000803e3d6000fd5b505050506040513d601f19601f820116820180604052508101906107da919061401d565b90508073ffffffffffffffffffffffffffffffffffffffff168260040160009054906101000a900473ffffffffffffffffffffffffffffffffffffffff1673ffffffffffffffffffffffffffffffffffffffff168360010160009054906101000a900473ffffffffffffffffffffffffffffffffffffffff1673ffffffffffffffffffffffffffffffffffffffff167f039c6bebbd4eb869ed654466ceda0f755f91f7f0ad1a360bb19bd3556649883c88866002015460405161089e929190614aa4565b60405180910390a45050505050565b600260005414156108f3576040517f08c379a00000000000000000000000000000000000000000000000000000000081526004016108ea906149ba565b60405180910390fd5b60026000819055508160006003600083815260200190815260200160002060405180610120016040529081600082015481526020016001820160009054906101000a900473ffffffffffffffffffffffffffffffffffffffff1673ffffffffffffffffffffffffffffffffffffffff1673ffffffffffffffffffffffffffffffffffffffff16815260200160028201548152602001600382015481526020016004820160009054906101000a900473ffffffffffffffffffffffffffffffffffffffff1673ffffffffffffffffffffffffffffffffffffffff1673ffffffffffffffffffffffffffffffffffffffff1681526020016005820160009054906101000a900473ffffffffffffffffffffffffffffffffffffffff1673ffffffffffffffffffffffffffffffffffffffff1673ffffffffffffffffffffffffffffffffffffffff1681526020016005820160149054906101000a900460ff16151515158152602001600682015481526020016007820160009054906101000a900460ff1615151515815250509050806080015173ffffffffffffffffffffffffffffffffffffffff163373ffffffffffffffffffffffffffffffffffffffff1614610af1576040517f08c379a0000000000000000000000000000000000000000000000000000000008152600401610ae89061491a565b60405180910390fd5b83600081118015610b0457506001548111155b610b43576040517f08c379a0000000000000000000000000000000000000000000000000000000008152600401610b3a906148da565b60405180910390fd5b60006003600087815260200190815260200160002090508060050160149054906101000a900460ff16610bab576040517f08c379a0000000000000000000000000000000000000000000000000000000008152600401610ba2906147da565b60405180910390fd5b8060010160009054906101000a900473ffffffffffffffffffffffffffffffffffffffff1673ffffffffffffffffffffffffffffffffffffffff166323b872dd333084600201546040518463ffffffff1660e01b8152600401610c1093929190614743565b600060405180830381600087803b158015610c2a57600080fd5b505af1158015610c3e573d6000803e3d6000fd5b5050505060008160050160146101000a81548160ff0219169083151502179055508481600301819055503373ffffffffffffffffffffffffffffffffffffffff168160010160009054906101000a900473ffffffffffffffffffffffffffffffffffffffff1673ffffffffffffffffffffffffffffffffffffffff167f61794f600979061b32f0001cce9e5a1f5631d6eb06ba54fad8730fac89434b478360000154846002015489604051610cf593929190614b12565b60405180910390a35050505060016000819055505050565b6005602052816000526040600020602052806000526040600020600091509150505481565b8060006003600083815260200190815260200160002060405180610120016040529081600082015481526020016001820160009054906101000a900473ffffffffffffffffffffffffffffffffffffffff1673ffffffffffffffffffffffffffffffffffffffff1673ffffffffffffffffffffffffffffffffffffffff16815260200160028201548152602001600382015481526020016004820160009054906101000a900473ffffffffffffffffffffffffffffffffffffffff1673ffffffffffffffffffffffffffffffffffffffff1673ffffffffffffffffffffffffffffffffffffffff1681526020016005820160009054906101000a900473ffffffffffffffffffffffffffffffffffffffff1673ffffffffffffffffffffffffffffffffffffffff1673ffffffffffffffffffffffffffffffffffffffff1681526020016005820160149054906101000a900460ff16151515158152602001600682015481526020016007820160009054906101000a900460ff1615151515815250509050806080015173ffffffffffffffffffffffffffffffffffffffff163373ffffffffffffffffffffffffffffffffffffffff161415610f29576040517f08c379a0000000000000000000000000000000000000000000000000000000008152600401610f209061483a565b60405180910390fd5b82600081118015610f3c57506001548111155b610f7b576040517f08c379a0000000000000000000000000000000000000000000000000000000008152600401610f72906148da565b60405180910390fd5b600060046000868152602001908152602001600020905060647f00000000000000000000000000000000000000000000000000000000000000006064610fc19190614c1f565b8260010160009054906101000a90046fffffffffffffffffffffffffffffffff166fffffffffffffffffffffffffffffffff16610ffe9190614ca6565b6110089190614c75565b34101561104a576040517f08c379a00000000000000000000000000000000000000000000000000000000081526004016110419061499a565b60405180910390fd5b8060040160149054906101000a900460ff1661109b576040517f08c379a00000000000000000000000000000000000000000000000000000000081526004016110929061487a565b60405180910390fd5b60006005600087815260200190815260200160002060003373ffffffffffffffffffffffffffffffffffffffff1673ffffffffffffffffffffffffffffffffffffffff16815260200190815260200160002054111561118c573373ffffffffffffffffffffffffffffffffffffffff166108fc6005600088815260200190815260200160002060003373ffffffffffffffffffffffffffffffffffffffff1673ffffffffffffffffffffffffffffffffffffffff168152602001908152602001600020549081150290604051600060405180830381858888f1935050505015801561118a573d6000803e3d6000fd5b505b346005600087815260200190815260200160002060003373ffffffffffffffffffffffffffffffffffffffff1673ffffffffffffffffffffffffffffffffffffffff1681526020019081526020016000208190555060008160050180549050141561124257348160030181905550338160040160006101000a81548173ffffffffffffffffffffffffffffffffffffffff021916908373ffffffffffffffffffffffffffffffffffffffff1602179055506112d5565b34816003015410611288576040517f08c379a000000000000000000000000000000000000000000000000000000000815260040161127f906148ba565b60405180910390fd5b348160030181905550338160040160006101000a81548173ffffffffffffffffffffffffffffffffffffffff021916908373ffffffffffffffffffffffffffffffffffffffff1602179055505b80600601339080600181540180825580915050600190039060005260206000200160009091909190916101000a81548173ffffffffffffffffffffffffffffffffffffffff021916908373ffffffffffffffffffffffffffffffffffffffff160217905550806005013490806001815401808255809150506001900390600052602060002001600090919091909150555050505050565b7f000000000000000000000000000000000000000000000000000000000000000081565b60015481565b7f000000000000000000000000000000000000000000000000000000000000000081565b60046020528060005260406000206000915090508060000160009054906101000a900473ffffffffffffffffffffffffffffffffffffffff16908060010160009054906101000a90046fffffffffffffffffffffffffffffffff16908060020154908060030154908060040160009054906101000a900473ffffffffffffffffffffffffffffffffffffffff16908060040160149054906101000a900460ff16905086565b600033905090565b8060008111801561147a57506001548111155b6114b9576040517f08c379a00000000000000000000000000000000000000000000000000000000081526004016114b0906148da565b60405180910390fd5b600060036000848152602001908152602001600020905060006004600085815260200190815260200160002090503373ffffffffffffffffffffffffffffffffffffffff168160000160009054906101000a900473ffffffffffffffffffffffffffffffffffffffff1673ffffffffffffffffffffffffffffffffffffffff1614611579576040517f08c379a00000000000000000000000000000000000000000000000000000000081526004016115709061495a565b60405180910390fd5b8060040160149054906101000a900460ff166115ca576040517f08c379a00000000000000000000000000000000000000000000000000000000081526004016115c19061487a565b60405180910390fd5b60008160040160146101000a81548160ff02191690831515021790555060008260070160006101000a81548160ff02191690831515021790555060005b816006018054905081101561178c57816006018181548110611652577f4e487b7100000000000000000000000000000000000000000000000000000000600052603260045260246000fd5b9060005260206000200160009054906101000a900473ffffffffffffffffffffffffffffffffffffffff1673ffffffffffffffffffffffffffffffffffffffff166108fc6005600088815260200190815260200160002060008560060185815481106116e7577f4e487b7100000000000000000000000000000000000000000000000000000000600052603260045260246000fd5b9060005260206000200160009054906101000a900473ffffffffffffffffffffffffffffffffffffffff1673ffffffffffffffffffffffffffffffffffffffff1673ffffffffffffffffffffffffffffffffffffffff168152602001908152602001600020549081150290604051600060405180830381858888f19350505050158015611778573d6000803e3d6000fd5b50808061178490614e16565b915050611607565b508160010160009054906101000a900473ffffffffffffffffffffffffffffffffffffffff1673ffffffffffffffffffffffffffffffffffffffff166323b872dd308360000160009054906101000a900473ffffffffffffffffffffffffffffffffffffffff1685600201546040518463ffffffff1660e01b81526004016118169392919061470c565b600060405180830381600087803b15801561183057600080fd5b505af1158015611844573d6000803e3d6000fd5b5050505060018260050160146101000a81548160ff02191690831515021790555060008260010160009054906101000a900473ffffffffffffffffffffffffffffffffffffffff1673ffffffffffffffffffffffffffffffffffffffff16636352211e84600201546040518263ffffffff1660e01b81526004016118c891906149fc565b60206040518083038186803b1580156118e057600080fd5b505afa1580156118f4573d6000803e3d6000fd5b505050506040513d601f19601f82011682018060405250810190611918919061401d565b90508073ffffffffffffffffffffffffffffffffffffffff168260000160009054906101000a900473ffffffffffffffffffffffffffffffffffffffff1673ffffffffffffffffffffffffffffffffffffffff168460010160009054906101000a900473ffffffffffffffffffffffffffffffffffffffff1673ffffffffffffffffffffffffffffffffffffffff167fadcef2b3bf74c52412485f58d01fb018f0c43f9fd9c50b82bc3243aba0803f7d8887600201546040516119dc929190614aa4565b60405180910390a45050505050565b60006004600083815260200190815260200160002090508060020154421015611a49576040517f08c379a0000000000000000000000000000000000000000000000000000000008152600401611a409061489a565b60405180910390fd5b8060000160009054906101000a900473ffffffffffffffffffffffffffffffffffffffff1673ffffffffffffffffffffffffffffffffffffffff163373ffffffffffffffffffffffffffffffffffffffff1614611adb576040517f08c379a0000000000000000000000000000000000000000000000000000000008152600401611ad29061495a565b60405180910390fd5b8060040160149054906101000a900460ff16611b2c576040517f08c379a0000000000000000000000000000000000000000000000000000000008152600401611b239061487a565b60405180910390fd5b60008160040160146101000a81548160ff0219169083151502179055506000600360008481526020019081526020016000209050600082600501805490501415611c30578060010160009054906101000a900473ffffffffffffffffffffffffffffffffffffffff1673ffffffffffffffffffffffffffffffffffffffff166323b872dd308460000160009054906101000a900473ffffffffffffffffffffffffffffffffffffffff1684600201546040518463ffffffff1660e01b8152600401611bf99392919061470c565b600060405180830381600087803b158015611c1357600080fd5b505af1158015611c27573d6000803e3d6000fd5b50505050612055565b600060647f00000000000000000000000000000000000000000000000000000000000000008460030154611c649190614ca6565b611c6e9190614c75565b90508260000160009054906101000a900473ffffffffffffffffffffffffffffffffffffffff1673ffffffffffffffffffffffffffffffffffffffff166108fc828560030154611cbe9190614d00565b9081150290604051600060405180830381858888f19350505050158015611ce9573d6000803e3d6000fd5b507f000000000000000000000000000000000000000000000000000000000000000073ffffffffffffffffffffffffffffffffffffffff166108fc829081150290604051600060405180830381858888f19350505050158015611d50573d6000803e3d6000fd5b5060005b8360060180549050811015611f97578360040160009054906101000a900473ffffffffffffffffffffffffffffffffffffffff1673ffffffffffffffffffffffffffffffffffffffff16846006018281548110611dda577f4e487b7100000000000000000000000000000000000000000000000000000000600052603260045260246000fd5b9060005260206000200160009054906101000a900473ffffffffffffffffffffffffffffffffffffffff1673ffffffffffffffffffffffffffffffffffffffff1614611f8457836006018181548110611e5c577f4e487b7100000000000000000000000000000000000000000000000000000000600052603260045260246000fd5b9060005260206000200160009054906101000a900473ffffffffffffffffffffffffffffffffffffffff1673ffffffffffffffffffffffffffffffffffffffff166108fc600560008881526020019081526020016000206000876006018581548110611ef1577f4e487b7100000000000000000000000000000000000000000000000000000000600052603260045260246000fd5b9060005260206000200160009054906101000a900473ffffffffffffffffffffffffffffffffffffffff1673ffffffffffffffffffffffffffffffffffffffff1673ffffffffffffffffffffffffffffffffffffffff168152602001908152602001600020549081150290604051600060405180830381858888f19350505050158015611f82573d6000803e3d6000fd5b505b8080611f8f90614e16565b915050611d54565b508160010160009054906101000a900473ffffffffffffffffffffffffffffffffffffffff1673ffffffffffffffffffffffffffffffffffffffff166323b872dd308560040160009054906101000a900473ffffffffffffffffffffffffffffffffffffffff1685600201546040518463ffffffff1660e01b81526004016120219392919061470c565b600060405180830381600087803b15801561203b57600080fd5b505af115801561204f573d6000803e3d6000fd5b50505050505b60008160070160006101000a81548160ff02191690831515021790555060018160050160146101000a81548160ff0219169083151502179055508160040160009054906101000a900473ffffffffffffffffffffffffffffffffffffffff1673ffffffffffffffffffffffffffffffffffffffff168260000160009054906101000a900473ffffffffffffffffffffffffffffffffffffffff1673ffffffffffffffffffffffffffffffffffffffff168260010160009054906101000a900473ffffffffffffffffffffffffffffffffffffffff1673ffffffffffffffffffffffffffffffffffffffff167ff889f7decc811427ccd0721356e301a01d3a2c2239c32424d4b53c248b075f53868560020154876003015460405161217b93929190614b12565b60405180910390a4505050565b600260005414156121ce576040517f08c379a00000000000000000000000000000000000000000000000000000000081526004016121c5906149ba565b60405180910390fd5b60026000819055506000811180156121e857506001548111155b612227576040517f08c379a000000000000000000000000000000000000000000000000000000000815260040161221e906148da565b60405180910390fd5b60006003600083815260200190815260200160002090506002543411612282576040517f08c379a00000000000000000000000000000000000000000000000000000000081526004016122799061493a565b60405180910390fd5b6002548160060160008282546122989190614c1f565b925050819055508060050160009054906101000a900473ffffffffffffffffffffffffffffffffffffffff1673ffffffffffffffffffffffffffffffffffffffff166108fc6002549081150290604051600060405180830381858888f1935050505015801561230b573d6000803e3d6000fd5b503373ffffffffffffffffffffffffffffffffffffffff168160050160009054906101000a900473ffffffffffffffffffffffffffffffffffffffff1673ffffffffffffffffffffffffffffffffffffffff168260010160009054906101000a900473ffffffffffffffffffffffffffffffffffffffff1673ffffffffffffffffffffffffffffffffffffffff167f571b315400e723dbcd90ac311880ecf83ed532bcdca6ace7c13d614a633c96bf858560020154866003015460025488600601546040516123de959493929190614b49565b60405180910390a450600160008190555050565b60036020528060005260406000206000915090508060000154908060010160009054906101000a900473ffffffffffffffffffffffffffffffffffffffff16908060020154908060030154908060040160009054906101000a900473ffffffffffffffffffffffffffffffffffffffff16908060050160009054906101000a900473ffffffffffffffffffffffffffffffffffffffff16908060050160149054906101000a900460ff16908060060154908060070160009054906101000a900460ff16905089565b8260006003600083815260200190815260200160002060405180610120016040529081600082015481526020016001820160009054906101000a900473ffffffffffffffffffffffffffffffffffffffff1673ffffffffffffffffffffffffffffffffffffffff1673ffffffffffffffffffffffffffffffffffffffff16815260200160028201548152602001600382015481526020016004820160009054906101000a900473ffffffffffffffffffffffffffffffffffffffff1673ffffffffffffffffffffffffffffffffffffffff1673ffffffffffffffffffffffffffffffffffffffff1681526020016005820160009054906101000a900473ffffffffffffffffffffffffffffffffffffffff1673ffffffffffffffffffffffffffffffffffffffff1673ffffffffffffffffffffffffffffffffffffffff1681526020016005820160149054906101000a900460ff16151515158152602001600682015481526020016007820160009054906101000a900460ff1615151515815250509050806080015173ffffffffffffffffffffffffffffffffffffffff163373ffffffffffffffffffffffffffffffffffffffff16146126b0576040517f08c379a00000000000000000000000000000000000000000000000000000000081526004016126a79061491a565b60405180910390fd5b8460006003600083815260200190815260200160002060405180610120016040529081600082015481526020016001820160009054906101000a900473ffffffffffffffffffffffffffffffffffffffff1673ffffffffffffffffffffffffffffffffffffffff1673ffffffffffffffffffffffffffffffffffffffff16815260200160028201548152602001600382015481526020016004820160009054906101000a900473ffffffffffffffffffffffffffffffffffffffff1673ffffffffffffffffffffffffffffffffffffffff1673ffffffffffffffffffffffffffffffffffffffff1681526020016005820160009054906101000a900473ffffffffffffffffffffffffffffffffffffffff1673ffffffffffffffffffffffffffffffffffffffff1673ffffffffffffffffffffffffffffffffffffffff1681526020016005820160149054906101000a900460ff16151515158152602001600682015481526020016007820160009054906101000a900460ff16151515158152505090508060c0015115612879576040517f08c379a0000000000000000000000000000000000000000000000000000000008152600401612870906148fa565b60405180910390fd5b8660006003600083815260200190815260200160002060405180610120016040529081600082015481526020016001820160009054906101000a900473ffffffffffffffffffffffffffffffffffffffff1673ffffffffffffffffffffffffffffffffffffffff1673ffffffffffffffffffffffffffffffffffffffff16815260200160028201548152602001600382015481526020016004820160009054906101000a900473ffffffffffffffffffffffffffffffffffffffff1673ffffffffffffffffffffffffffffffffffffffff1673ffffffffffffffffffffffffffffffffffffffff1681526020016005820160009054906101000a900473ffffffffffffffffffffffffffffffffffffffff1673ffffffffffffffffffffffffffffffffffffffff1673ffffffffffffffffffffffffffffffffffffffff1681526020016005820160149054906101000a900460ff16151515158152602001600682015481526020016007820160009054906101000a900460ff161515151581525050905080610100015115612a43576040517f08c379a0000000000000000000000000000000000000000000000000000000008152600401612a3a9061481a565b60405180910390fd5b88600081118015612a5657506001548111155b612a95576040517f08c379a0000000000000000000000000000000000000000000000000000000008152600401612a8c906148da565b60405180910390fd5b6000600360008c8152602001908152602001600020905060018160070160006101000a81548160ff02191690831515021790555060008a6fffffffffffffffffffffffffffffffff1611612b1e576040517f08c379a0000000000000000000000000000000000000000000000000000000008152600401612b15906147ba565b60405180910390fd5b60008911612b61576040517f08c379a0000000000000000000000000000000000000000000000000000000008152600401612b589061485a565b60405180910390fd5b60006040518061010001604052803373ffffffffffffffffffffffffffffffffffffffff1681526020018c6fffffffffffffffffffffffffffffffff1681526020018b815260200160008152602001600073ffffffffffffffffffffffffffffffffffffffff168152602001600115158152602001600067ffffffffffffffff811115612c17577f4e487b7100000000000000000000000000000000000000000000000000000000600052604160045260246000fd5b604051908082528060200260200182016040528015612c455781602001602082028036833780820191505090505b508152602001600067ffffffffffffffff811115612c8c577f4e487b7100000000000000000000000000000000000000000000000000000000600052604160045260246000fd5b604051908082528060200260200182016040528015612cba5781602001602082028036833780820191505090505b50815250905080600460008e815260200190815260200160002060008201518160000160006101000a81548173ffffffffffffffffffffffffffffffffffffffff021916908373ffffffffffffffffffffffffffffffffffffffff16021790555060208201518160010160006101000a8154816fffffffffffffffffffffffffffffffff02191690836fffffffffffffffffffffffffffffffff160217905550604082015181600201556060820151816003015560808201518160040160006101000a81548173ffffffffffffffffffffffffffffffffffffffff021916908373ffffffffffffffffffffffffffffffffffffffff16021790555060a08201518160040160146101000a81548160ff02191690831515021790555060c0820151816005019080519060200190612df1929190613e3b565b5060e0820151816006019080519060200190612e0e929190613e88565b509050503373ffffffffffffffffffffffffffffffffffffffff168260010160009054906101000a900473ffffffffffffffffffffffffffffffffffffffff1673ffffffffffffffffffffffffffffffffffffffff167f9dcd40d8b44ed216426d6192509ebc05ff354c16240aa5f1c406cefb8b892f5d846000015485600201548f8f604051612ea19493929190614acd565b60405180910390a3505050505050505050505050565b600060647f00000000000000000000000000000000000000000000000000000000000000006064612ee89190614c1f565b6003600085815260200190815260200160002060030154612f099190614ca6565b612f139190614c75565b9050919050565b60026000541415612f60576040517f08c379a0000000000000000000000000000000000000000000000000000000008152600401612f57906149ba565b60405180910390fd5b60026000819055508060006003600083815260200190815260200160002060405180610120016040529081600082015481526020016001820160009054906101000a900473ffffffffffffffffffffffffffffffffffffffff1673ffffffffffffffffffffffffffffffffffffffff1673ffffffffffffffffffffffffffffffffffffffff16815260200160028201548152602001600382015481526020016004820160009054906101000a900473ffffffffffffffffffffffffffffffffffffffff1673ffffffffffffffffffffffffffffffffffffffff1673ffffffffffffffffffffffffffffffffffffffff1681526020016005820160009054906101000a900473ffffffffffffffffffffffffffffffffffffffff1673ffffffffffffffffffffffffffffffffffffffff1673ffffffffffffffffffffffffffffffffffffffff1681526020016005820160149054906101000a900460ff16151515158152602001600682015481526020016007820160009054906101000a900460ff161515151581525050905080610100015115613132576040517f08c379a00000000000000000000000000000000000000000000000000000000081526004016131299061481a565b60405180910390fd5b8260006003600083815260200190815260200160002060405180610120016040529081600082015481526020016001820160009054906101000a900473ffffffffffffffffffffffffffffffffffffffff1673ffffffffffffffffffffffffffffffffffffffff1673ffffffffffffffffffffffffffffffffffffffff16815260200160028201548152602001600382015481526020016004820160009054906101000a900473ffffffffffffffffffffffffffffffffffffffff1673ffffffffffffffffffffffffffffffffffffffff1673ffffffffffffffffffffffffffffffffffffffff1681526020016005820160009054906101000a900473ffffffffffffffffffffffffffffffffffffffff1673ffffffffffffffffffffffffffffffffffffffff1673ffffffffffffffffffffffffffffffffffffffff1681526020016005820160149054906101000a900460ff16151515158152602001600682015481526020016007820160009054906101000a900460ff16151515158152505090508060c00151156132fb576040517f08c379a00000000000000000000000000000000000000000000000000000000081526004016132f2906148fa565b60405180910390fd5b600061330686612eb7565b9050600060036000888152602001908152602001600020905060008711801561333157506001548711155b613370576040517f08c379a0000000000000000000000000000000000000000000000000000000008152600401613367906148da565b60405180910390fd5b813410156133b3576040517f08c379a00000000000000000000000000000000000000000000000000000000081526004016133aa906147fa565b60405180910390fd5b8060050160149054906101000a900460ff1615613405576040517f08c379a00000000000000000000000000000000000000000000000000000000081526004016133fc9061477a565b60405180910390fd5b8060040160009054906101000a900473ffffffffffffffffffffffffffffffffffffffff1673ffffffffffffffffffffffffffffffffffffffff166108fc82600301549081150290604051600060405180830381858888f19350505050158015613473573d6000803e3d6000fd5b507f000000000000000000000000000000000000000000000000000000000000000073ffffffffffffffffffffffffffffffffffffffff166108fc8260030154846134be9190614d00565b9081150290604051600060405180830381858888f193505050501580156134e9573d6000803e3d6000fd5b5060018160050160146101000a81548160ff0219169083151502179055508060010160009054906101000a900473ffffffffffffffffffffffffffffffffffffffff1673ffffffffffffffffffffffffffffffffffffffff166323b872dd303384600201546040518463ffffffff1660e01b815260040161356c93929190614743565b600060405180830381600087803b15801561358657600080fd5b505af115801561359a573d6000803e3d6000fd5b505050503373ffffffffffffffffffffffffffffffffffffffff168160040160009054906101000a900473ffffffffffffffffffffffffffffffffffffffff1673ffffffffffffffffffffffffffffffffffffffff168260010160009054906101000a900473ffffffffffffffffffffffffffffffffffffffff1673ffffffffffffffffffffffffffffffffffffffff167f8b4c9c8a607d67b321582dd8461041b1dc2ceeca70c8b7f37f8e02095cf2e76d8a8560020154866003015460405161366693929190614b12565b60405180910390a4338160040160006101000a81548173ffffffffffffffffffffffffffffffffffffffff021916908373ffffffffffffffffffffffffffffffffffffffff160217905550505050505050600160008190555050565b6136ca613f12565b60006003600084815260200190815260200160002060405180610120016040529081600082015481526020016001820160009054906101000a900473ffffffffffffffffffffffffffffffffffffffff1673ffffffffffffffffffffffffffffffffffffffff1673ffffffffffffffffffffffffffffffffffffffff16815260200160028201548152602001600382015481526020016004820160009054906101000a900473ffffffffffffffffffffffffffffffffffffffff1673ffffffffffffffffffffffffffffffffffffffff1673ffffffffffffffffffffffffffffffffffffffff1681526020016005820160009054906101000a900473ffffffffffffffffffffffffffffffffffffffff1673ffffffffffffffffffffffffffffffffffffffff1673ffffffffffffffffffffffffffffffffffffffff1681526020016005820160149054906101000a900460ff16151515158152602001600682015481526020016007820160009054906101000a900460ff1615151515815250509050806101000151613892576040517f08c379a00000000000000000000000000000000000000000000000000000000081526004016138899061497a565b60405180910390fd5b600060046000858152602001908152602001600020604051806101000160405290816000820160009054906101000a900473ffffffffffffffffffffffffffffffffffffffff1673ffffffffffffffffffffffffffffffffffffffff1673ffffffffffffffffffffffffffffffffffffffff1681526020016001820160009054906101000a90046fffffffffffffffffffffffffffffffff166fffffffffffffffffffffffffffffffff166fffffffffffffffffffffffffffffffff16815260200160028201548152602001600382015481526020016004820160009054906101000a900473ffffffffffffffffffffffffffffffffffffffff1673ffffffffffffffffffffffffffffffffffffffff1673ffffffffffffffffffffffffffffffffffffffff1681526020016004820160149054906101000a900460ff1615151515815260200160058201805480602002602001604051908101604052809291908181526020018280548015613a2757602002820191906000526020600020905b815481526020019060010190808311613a13575b5050505050815260200160068201805480602002602001604051908101604052809291908181526020018280548015613ab557602002820191906000526020600020905b8160009054906101000a900473ffffffffffffffffffffffffffffffffffffffff1673ffffffffffffffffffffffffffffffffffffffff1681526020019060010190808311613a6b575b50505050508152505090508092505050919050565b60026000541415613b10576040517f08c379a0000000000000000000000000000000000000000000000000000000008152600401613b07906149ba565b60405180910390fd5b600260008190555060008111613b5b576040517f08c379a0000000000000000000000000000000000000000000000000000000008152600401613b529061479a565b60405180910390fd5b60016000815480929190613b6e90614e16565b91905055508273ffffffffffffffffffffffffffffffffffffffff166323b872dd3330856040518463ffffffff1660e01b8152600401613bb093929190614743565b600060405180830381600087803b158015613bca57600080fd5b505af1158015613bde573d6000803e3d6000fd5b5050505060405180610120016040528060015481526020018473ffffffffffffffffffffffffffffffffffffffff1681526020018381526020018281526020013373ffffffffffffffffffffffffffffffffffffffff1681526020013373ffffffffffffffffffffffffffffffffffffffff16815260200160001515815260200160008152602001600015158152506003600060015481526020019081526020016000206000820151816000015560208201518160010160006101000a81548173ffffffffffffffffffffffffffffffffffffffff021916908373ffffffffffffffffffffffffffffffffffffffff160217905550604082015181600201556060820151816003015560808201518160040160006101000a81548173ffffffffffffffffffffffffffffffffffffffff021916908373ffffffffffffffffffffffffffffffffffffffff16021790555060a08201518160050160006101000a81548173ffffffffffffffffffffffffffffffffffffffff021916908373ffffffffffffffffffffffffffffffffffffffff16021790555060c08201518160050160146101000a81548160ff02191690831515021790555060e082015181600601556101008201518160070160006101000a81548160ff0219169083151502179055509050503373ffffffffffffffffffffffffffffffffffffffff168373ffffffffffffffffffffffffffffffffffffffff167f655a0cf9c8db81512be9a76dc1c5ae5380b8816ce6ad659cd61b715e2999d59a6001548585604051613e2693929190614b12565b60405180910390a36001600081905550505050565b828054828255906000526020600020908101928215613e77579160200282015b82811115613e76578251825591602001919060010190613e5b565b5b509050613e849190613f97565b5090565b828054828255906000526020600020908101928215613f01579160200282015b82811115613f005782518260006101000a81548173ffffffffffffffffffffffffffffffffffffffff021916908373ffffffffffffffffffffffffffffffffffffffff16021790555091602001919060010190613ea8565b5b509050613f0e9190613f97565b5090565b604051806101000160405280600073ffffffffffffffffffffffffffffffffffffffff16815260200160006fffffffffffffffffffffffffffffffff1681526020016000815260200160008152602001600073ffffffffffffffffffffffffffffffffffffffff16815260200160001515815260200160608152602001606081525090565b5b80821115613fb0576000816000905550600101613f98565b5090565b600081359050613fc381615286565b92915050565b600081519050613fd881615286565b92915050565b600081359050613fed8161529d565b92915050565b600081359050614002816152b4565b92915050565b600081359050614017816152cb565b92915050565b60006020828403121561402f57600080fd5b600061403d84828501613fc9565b91505092915050565b60008060006060848603121561405b57600080fd5b600061406986828701613fde565b935050602061407a86828701614008565b925050604061408b86828701614008565b9150509250925092565b6000602082840312156140a757600080fd5b60006140b584828501614008565b91505092915050565b600080604083850312156140d157600080fd5b60006140df85828601614008565b92505060206140f085828601613fb4565b9150509250929050565b60008060006060848603121561410f57600080fd5b600061411d86828701614008565b935050602061412e86828701613ff3565b925050604061413f86828701614008565b9150509250925092565b6000806040838503121561415c57600080fd5b600061416a85828601614008565b925050602061417b85828601614008565b9150509250929050565b600061419183836141e2565b60208301905092915050565b60006141a98383614657565b60208301905092915050565b6141be81614dbc565b82525050565b6141cd81614d46565b82525050565b6141dc81614d46565b82525050565b6141eb81614d34565b82525050565b6141fa81614d34565b82525050565b600061420b82614bbc565b6142158185614bec565b935061422083614b9c565b8060005b838110156142515781516142388882614185565b975061424383614bd2565b925050600181019050614224565b5085935050505092915050565b600061426982614bc7565b6142738185614bfd565b935061427e83614bac565b8060005b838110156142af578151614296888261419d565b97506142a183614bdf565b925050600181019050614282565b5085935050505092915050565b6142c581614d58565b82525050565b6142d481614d58565b82525050565b6142e381614dce565b82525050565b60006142f6601183614c0e565b915061430182614ebd565b602082019050919050565b6000614319601f83614c0e565b915061432482614ee6565b602082019050919050565b600061433c602383614c0e565b915061434782614f0f565b604082019050919050565b600061435f601983614c0e565b915061436a82614f5e565b602082019050919050565b6000614382603383614c0e565b915061438d82614f87565b604082019050919050565b60006143a5601783614c0e565b91506143b082614fd6565b602082019050919050565b60006143c8602083614c0e565b91506143d382614fff565b602082019050919050565b60006143eb601683614c0e565b91506143f682615028565b602082019050919050565b600061440e601283614c0e565b915061441982615051565b602082019050919050565b6000614431601583614c0e565b915061443c8261507a565b602082019050919050565b6000614454602783614c0e565b915061445f826150a3565b604082019050919050565b6000614477601283614c0e565b9150614482826150f2565b602082019050919050565b600061449a601183614c0e565b91506144a58261511b565b602082019050919050565b60006144bd601c83614c0e565b91506144c882615144565b602082019050919050565b60006144e0602483614c0e565b91506144eb8261516d565b604082019050919050565b6000614503600a83614c0e565b915061450e826151bc565b602082019050919050565b6000614526601683614c0e565b9150614531826151e5565b602082019050919050565b6000614549602c83614c0e565b91506145548261520e565b604082019050919050565b600061456c601f83614c0e565b91506145778261525d565b602082019050919050565b60006101008301600083015161459b60008601826141c4565b5060208301516145ae6020860182614639565b5060408301516145c16040860182614657565b5060608301516145d46060860182614657565b5060808301516145e760808601826141c4565b5060a08301516145fa60a08601826142bc565b5060c083015184820360c0860152614612828261425e565b91505060e083015184820360e086015261462c8282614200565b9150508091505092915050565b61464281614d76565b82525050565b61465181614d76565b82525050565b61466081614db2565b82525050565b61466f81614db2565b82525050565b600060208201905061468a60008301846141f1565b92915050565b60006020820190506146a560008301846141d3565b92915050565b600060c0820190506146c060008301896141d3565b6146cd6020830188614648565b6146da6040830187614666565b6146e76060830186614666565b6146f460808301856141d3565b61470160a08301846142cb565b979650505050505050565b600060608201905061472160008301866141f1565b61472e60208301856141b5565b61473b6040830184614666565b949350505050565b600060608201905061475860008301866141f1565b61476560208301856141f1565b6147726040830184614666565b949350505050565b60006020820190508181036000830152614793816142e9565b9050919050565b600060208201905081810360008301526147b38161430c565b9050919050565b600060208201905081810360008301526147d38161432f565b9050919050565b600060208201905081810360008301526147f381614352565b9050919050565b6000602082019050818103600083015261481381614375565b9050919050565b6000602082019050818103600083015261483381614398565b9050919050565b60006020820190508181036000830152614853816143bb565b9050919050565b60006020820190508181036000830152614873816143de565b9050919050565b6000602082019050818103600083015261489381614401565b9050919050565b600060208201905081810360008301526148b381614424565b9050919050565b600060208201905081810360008301526148d381614447565b9050919050565b600060208201905081810360008301526148f38161446a565b9050919050565b600060208201905081810360008301526149138161448d565b9050919050565b60006020820190508181036000830152614933816144b0565b9050919050565b60006020820190508181036000830152614953816144d3565b9050919050565b60006020820190508181036000830152614973816144f6565b9050919050565b6000602082019050818103600083015261499381614519565b9050919050565b600060208201905081810360008301526149b38161453c565b9050919050565b600060208201905081810360008301526149d38161455f565b9050919050565b600060208201905081810360008301526149f48184614582565b905092915050565b6000602082019050614a116000830184614666565b92915050565b600061012082019050614a2d600083018c614666565b614a3a602083018b6142da565b614a47604083018a614666565b614a546060830189614666565b614a6160808301886141d3565b614a6e60a08301876141d3565b614a7b60c08301866142cb565b614a8860e0830185614666565b614a966101008301846142cb565b9a9950505050505050505050565b6000604082019050614ab96000830185614666565b614ac66020830184614666565b9392505050565b6000608082019050614ae26000830187614666565b614aef6020830186614666565b614afc6040830185614648565b614b096060830184614666565b95945050505050565b6000606082019050614b276000830186614666565b614b346020830185614666565b614b416040830184614666565b949350505050565b600060a082019050614b5e6000830188614666565b614b6b6020830187614666565b614b786040830186614666565b614b856060830185614666565b614b926080830184614666565b9695505050505050565b6000819050602082019050919050565b6000819050602082019050919050565b600081519050919050565b600081519050919050565b6000602082019050919050565b6000602082019050919050565b600082825260208201905092915050565b600082825260208201905092915050565b600082825260208201905092915050565b6000614c2a82614db2565b9150614c3583614db2565b9250827fffffffffffffffffffffffffffffffffffffffffffffffffffffffffffffffff03821115614c6a57614c69614e5f565b5b828201905092915050565b6000614c8082614db2565b9150614c8b83614db2565b925082614c9b57614c9a614e8e565b5b828204905092915050565b6000614cb182614db2565b9150614cbc83614db2565b9250817fffffffffffffffffffffffffffffffffffffffffffffffffffffffffffffffff0483118215151615614cf557614cf4614e5f565b5b828202905092915050565b6000614d0b82614db2565b9150614d1683614db2565b925082821015614d2957614d28614e5f565b5b828203905092915050565b6000614d3f82614d92565b9050919050565b6000614d5182614d92565b9050919050565b60008115159050919050565b6000614d6f82614d34565b9050919050565b60006fffffffffffffffffffffffffffffffff82169050919050565b600073ffffffffffffffffffffffffffffffffffffffff82169050919050565b6000819050919050565b6000614dc782614df2565b9050919050565b6000614dd982614de0565b9050919050565b6000614deb82614d92565b9050919050565b6000614dfd82614e04565b9050919050565b6000614e0f82614d92565b9050919050565b6000614e2182614db2565b91507fffffffffffffffffffffffffffffffffffffffffffffffffffffffffffffffff821415614e5457614e53614e5f565b5b600182019050919050565b7f4e487b7100000000000000000000000000000000000000000000000000000000600052601160045260246000fd5b7f4e487b7100000000000000000000000000000000000000000000000000000000600052601260045260246000fd5b7f6974656d20616c726561647920736f6c64000000000000000000000000000000600082015250565b7f5072696365206d7573742062652067726561746572207468616e207a65726f00600082015250565b7f426173652070726963652073686f756c6420626520677265617465722074686160008201527f6e20300000000000000000000000000000000000000000000000000000000000602082015250565b7f53686f756c6420626520612072652d73656c6c206974656d2e00000000000000600082015250565b7f6e6f7420656e6f75676820657468657220746f20636f766572206974656d207060008201527f7269636520616e64206d61726b65742066656500000000000000000000000000602082015250565b7f546865206974656d20697320696e2061756374696f6e21000000000000000000600082015250565b7f53656c6c65722063616e6e6f742063616c6c20746869732066756e6374696f6e600082015250565b7f496e76616c6964206475726174696f6e2076616c756500000000000000000000600082015250565b7f41756374696f6e206e6f74206163746976650000000000000000000000000000600082015250565b7f61756374696f6e206861736e277420656e6465642e0000000000000000000000600082015250565b7f43757272656e74206d61782062696420697320686967686572207468616e207960008201527f6f75722062696400000000000000000000000000000000000000000000000000602082015250565b7f6974656d20646f65736e27742065786973740000000000000000000000000000600082015250565b7f546865206974656d20697320736f6c6421000000000000000000000000000000600082015250565b7f4f6e6c792063616e2062652063616c6c65642062792073656c6c657200000000600082015250565b7f7265776172642073686f756c642067726561746572207468616e20302e30303060008201527f3145544800000000000000000000000000000000000000000000000000000000602082015250565b7f4e6f742073656c6c657200000000000000000000000000000000000000000000600082015250565b7f4974656d206973206e6f7420696e2061756374696f6e00000000000000000000600082015250565b7f626964207072696365206973206c657373207468616e2062617365207072696360008201527f652b6d61726b6574206665650000000000000000000000000000000000000000602082015250565b7f5265656e7472616e637947756172643a207265656e7472616e742063616c6c00600082015250565b61528f81614d34565b811461529a57600080fd5b50565b6152a681614d64565b81146152b157600080fd5b50565b6152bd81614d76565b81146152c857600080fd5b50565b6152d481614db2565b81146152df57600080fd5b5056fea2646970667358221220fba20a8514ff960fcac5c5146c761e446607d614b27a5402bd32b531af02240c64736f6c63430008040033",
  "linkReferences": {},
  "deployedLinkReferences": {}
}