{
  "_format": "hh-sol-artifact-1",
  "contractName": "MarketPlace",
  "sourceName": "src/contracts/MarketPlace.sol",
  "abi": [
    {
      "inputs": [
        {
          "internalType": "uint256",
          "name": "_feePercent",
          "type": "uint256"
        }
      ],
      "stateMutability": "nonpayable",
      "type": "constructor"
    },
    {
      "anonymous": false,
      "inputs": [
        {
          "indexed": false,
          "internalType": "uint256",
          "name": "itemId",
          "type": "uint256"
        },
        {
          "indexed": true,
          "internalType": "address",
          "name": "nft",
          "type": "address"
        },
        {
          "indexed": false,
          "internalType": "uint256",
          "name": "tokenId",
          "type": "uint256"
        },
        {
          "indexed": false,
          "internalType": "uint256",
          "name": "price",
          "type": "uint256"
        },
        {
          "indexed": true,
          "internalType": "address",
          "name": "seller",
          "type": "address"
        },
        {
          "indexed": true,
          "internalType": "address",
          "name": "buyer",
          "type": "address"
        }
      ],
      "name": "Bought",
      "type": "event"
    },
    {
      "anonymous": false,
      "inputs": [
        {
          "indexed": false,
          "internalType": "uint256",
          "name": "itemId",
          "type": "uint256"
        },
        {
          "indexed": true,
          "internalType": "address",
          "name": "nft",
          "type": "address"
        },
        {
          "indexed": false,
          "internalType": "uint256",
          "name": "tokenId",
          "type": "uint256"
        },
        {
          "indexed": false,
          "internalType": "uint256",
          "name": "price",
          "type": "uint256"
        },
        {
          "indexed": true,
          "internalType": "address",
          "name": "seller",
          "type": "address"
        }
      ],
      "name": "Offered",
      "type": "event"
    },
    {
      "anonymous": false,
      "inputs": [
        {
          "indexed": false,
          "internalType": "uint256",
          "name": "itemId",
          "type": "uint256"
        },
        {
          "indexed": true,
          "internalType": "address",
          "name": "nft",
          "type": "address"
        },
        {
          "indexed": false,
          "internalType": "uint256",
          "name": "tokenId",
          "type": "uint256"
        },
        {
          "indexed": false,
          "internalType": "uint256",
          "name": "price",
          "type": "uint256"
        },
        {
          "indexed": false,
          "internalType": "uint256",
          "name": "rewarded",
          "type": "uint256"
        },
        {
          "indexed": false,
          "internalType": "uint256",
          "name": "totalReward",
          "type": "uint256"
        },
        {
          "indexed": true,
          "internalType": "address",
          "name": "seller",
          "type": "address"
        },
        {
          "indexed": true,
          "internalType": "address",
          "name": "rewarder",
          "type": "address"
        }
      ],
      "name": "Rewarded",
      "type": "event"
    },
    {
      "anonymous": false,
      "inputs": [
        {
          "indexed": false,
          "internalType": "uint256",
          "name": "itemId",
          "type": "uint256"
        },
        {
          "indexed": true,
          "internalType": "address",
          "name": "nft",
          "type": "address"
        },
        {
          "indexed": false,
          "internalType": "uint256",
          "name": "tokenId",
          "type": "uint256"
        },
        {
          "indexed": false,
          "internalType": "uint256",
          "name": "price",
          "type": "uint256"
        },
        {
          "indexed": true,
          "internalType": "address",
          "name": "seller",
          "type": "address"
        }
      ],
      "name": "SellAgain",
      "type": "event"
    },
    {
      "anonymous": false,
      "inputs": [
        {
          "indexed": false,
          "internalType": "uint256",
          "name": "itemId",
          "type": "uint256"
        },
        {
          "indexed": true,
          "internalType": "address",
          "name": "nft",
          "type": "address"
        },
        {
          "indexed": false,
          "internalType": "uint256",
          "name": "tokenId",
          "type": "uint256"
        },
        {
          "indexed": true,
          "internalType": "address",
          "name": "seller",
          "type": "address"
        },
        {
          "indexed": true,
          "internalType": "address",
          "name": "tokenOwner",
          "type": "address"
        }
      ],
      "name": "auctionCanceled",
      "type": "event"
    },
    {
      "anonymous": false,
      "inputs": [
        {
          "indexed": false,
          "internalType": "uint256",
          "name": "itemId",
          "type": "uint256"
        },
        {
          "indexed": true,
          "internalType": "address",
          "name": "nft",
          "type": "address"
        },
        {
          "indexed": false,
          "internalType": "uint256",
          "name": "tokenId",
          "type": "uint256"
        },
        {
          "indexed": false,
          "internalType": "uint128",
          "name": "basePrice",
          "type": "uint128"
        },
        {
          "indexed": true,
          "internalType": "address",
          "name": "seller",
          "type": "address"
        },
        {
          "indexed": false,
          "internalType": "uint256",
          "name": "duration",
          "type": "uint256"
        }
      ],
      "name": "auctionCreated",
      "type": "event"
    },
    {
      "anonymous": false,
      "inputs": [
        {
          "indexed": false,
          "internalType": "uint256",
          "name": "itemId",
          "type": "uint256"
        },
        {
          "indexed": true,
          "internalType": "address",
          "name": "nft",
          "type": "address"
        },
        {
          "indexed": false,
          "internalType": "uint256",
          "name": "tokenId",
          "type": "uint256"
        },
        {
          "indexed": false,
          "internalType": "uint256",
          "name": "maxBidPrice",
          "type": "uint256"
        },
        {
          "indexed": true,
          "internalType": "address",
          "name": "seller",
          "type": "address"
        },
        {
          "indexed": true,
          "internalType": "address",
          "name": "maxBidder",
          "type": "address"
        }
      ],
      "name": "auctionDeal",
      "type": "event"
    },
    {
      "anonymous": false,
      "inputs": [
        {
          "indexed": false,
          "internalType": "uint256",
          "name": "itemId",
          "type": "uint256"
        },
        {
          "indexed": true,
          "internalType": "address",
          "name": "nft",
          "type": "address"
        },
        {
          "indexed": false,
          "internalType": "uint256",
          "name": "tokenId",
          "type": "uint256"
        },
        {
          "indexed": true,
          "internalType": "address",
          "name": "seller",
          "type": "address"
        },
        {
          "indexed": true,
          "internalType": "address",
          "name": "tokenOwner",
          "type": "address"
        }
      ],
      "name": "sellCancelled",
      "type": "event"
    },
    {
      "inputs": [
        {
          "internalType": "uint256",
          "name": "_itemId",
          "type": "uint256"
        },
        {
          "internalType": "uint128",
          "name": "_basePrice",
          "type": "uint128"
        },
        {
          "internalType": "uint256",
          "name": "_duration",
          "type": "uint256"
        }
      ],
      "name": "auctionItem",
      "outputs": [],
      "stateMutability": "nonpayable",
      "type": "function"
    },
    {
      "inputs": [
        {
          "internalType": "uint256",
          "name": "_itemId",
          "type": "uint256"
        }
      ],
      "name": "bid",
      "outputs": [],
      "stateMutability": "payable",
      "type": "function"
    },
    {
      "inputs": [
        {
          "internalType": "uint256",
          "name": "",
          "type": "uint256"
        },
        {
          "internalType": "address",
          "name": "",
          "type": "address"
        }
      ],
      "name": "bids",
      "outputs": [
        {
          "internalType": "uint256",
          "name": "",
          "type": "uint256"
        }
      ],
      "stateMutability": "view",
      "type": "function"
    },
    {
      "inputs": [
        {
          "internalType": "uint256",
          "name": "_itemId",
          "type": "uint256"
        }
      ],
      "name": "cancelAuction",
      "outputs": [],
      "stateMutability": "nonpayable",
      "type": "function"
    },
    {
      "inputs": [
        {
          "internalType": "uint256",
          "name": "_itemId",
          "type": "uint256"
        }
      ],
      "name": "cancelSell",
      "outputs": [],
      "stateMutability": "nonpayable",
      "type": "function"
    },
    {
      "inputs": [],
      "name": "currentAddress",
      "outputs": [
        {
          "internalType": "address",
          "name": "",
          "type": "address"
        }
      ],
      "stateMutability": "view",
      "type": "function"
    },
    {
      "inputs": [
        {
          "internalType": "uint256",
          "name": "_itemId",
          "type": "uint256"
        }
      ],
      "name": "executeSale",
      "outputs": [],
      "stateMutability": "nonpayable",
      "type": "function"
    },
    {
      "inputs": [],
      "name": "feeAccount",
      "outputs": [
        {
          "internalType": "address payable",
          "name": "",
          "type": "address"
        }
      ],
      "stateMutability": "view",
      "type": "function"
    },
    {
      "inputs": [],
      "name": "feePercent",
      "outputs": [
        {
          "internalType": "uint256",
          "name": "",
          "type": "uint256"
        }
      ],
      "stateMutability": "view",
      "type": "function"
    },
    {
      "inputs": [
        {
          "internalType": "uint256",
          "name": "_itemId",
          "type": "uint256"
        }
      ],
      "name": "getAuctionDetails",
      "outputs": [
        {
          "components": [
            {
              "internalType": "address payable",
              "name": "seller",
              "type": "address"
            },
            {
              "internalType": "uint128",
              "name": "basePrice",
              "type": "uint128"
            },
            {
              "internalType": "uint256",
              "name": "duration",
              "type": "uint256"
            },
            {
              "internalType": "uint256",
              "name": "maxBid",
              "type": "uint256"
            },
            {
              "internalType": "address payable",
              "name": "maxBidUser",
              "type": "address"
            },
            {
              "internalType": "bool",
              "name": "isActive",
              "type": "bool"
            },
            {
              "internalType": "uint256[]",
              "name": "bidAmounts",
              "type": "uint256[]"
            },
            {
              "internalType": "address[]",
              "name": "users",
              "type": "address[]"
            }
          ],
          "internalType": "struct MarketPlace.auctionDetails",
          "name": "",
          "type": "tuple"
        }
      ],
      "stateMutability": "view",
      "type": "function"
    },
    {
      "inputs": [
        {
          "internalType": "uint256",
          "name": "_itemId",
          "type": "uint256"
        }
      ],
      "name": "getTotalPrice",
      "outputs": [
        {
          "internalType": "uint256",
          "name": "",
          "type": "uint256"
        }
      ],
      "stateMutability": "view",
      "type": "function"
    },
    {
      "inputs": [],
      "name": "itemCount",
      "outputs": [
        {
          "internalType": "uint256",
          "name": "",
          "type": "uint256"
        }
      ],
      "stateMutability": "view",
      "type": "function"
    },
    {
      "inputs": [
        {
          "internalType": "uint256",
          "name": "",
          "type": "uint256"
        }
      ],
      "name": "itemToAuction",
      "outputs": [
        {
          "internalType": "address payable",
          "name": "seller",
          "type": "address"
        },
        {
          "internalType": "uint128",
          "name": "basePrice",
          "type": "uint128"
        },
        {
          "internalType": "uint256",
          "name": "duration",
          "type": "uint256"
        },
        {
          "internalType": "uint256",
          "name": "maxBid",
          "type": "uint256"
        },
        {
          "internalType": "address payable",
          "name": "maxBidUser",
          "type": "address"
        },
        {
          "internalType": "bool",
          "name": "isActive",
          "type": "bool"
        }
      ],
      "stateMutability": "view",
      "type": "function"
    },
    {
      "inputs": [
        {
          "internalType": "uint256",
          "name": "",
          "type": "uint256"
        }
      ],
      "name": "items",
      "outputs": [
        {
          "internalType": "uint256",
          "name": "itemId",
          "type": "uint256"
        },
        {
          "internalType": "contract IERC721",
          "name": "nft",
          "type": "address"
        },
        {
          "internalType": "uint256",
          "name": "tokenId",
          "type": "uint256"
        },
        {
          "internalType": "uint256",
          "name": "price",
          "type": "uint256"
        },
        {
          "internalType": "address payable",
          "name": "seller",
          "type": "address"
        },
        {
          "internalType": "address payable",
          "name": "developer",
          "type": "address"
        },
        {
          "internalType": "bool",
          "name": "sold",
          "type": "bool"
        },
        {
          "internalType": "uint256",
          "name": "totalReward",
          "type": "uint256"
        },
        {
          "internalType": "bool",
          "name": "inAuction",
          "type": "bool"
        }
      ],
      "stateMutability": "view",
      "type": "function"
    },
    {
      "inputs": [
        {
          "internalType": "contract IERC721",
          "name": "_nft",
          "type": "address"
        },
        {
          "internalType": "uint256",
          "name": "_tokenId",
          "type": "uint256"
        },
        {
          "internalType": "uint256",
          "name": "_price",
          "type": "uint256"
        }
      ],
      "name": "makeItem",
      "outputs": [],
      "stateMutability": "nonpayable",
      "type": "function"
    },
    {
      "inputs": [
        {
          "internalType": "uint256",
          "name": "_itemId",
          "type": "uint256"
        }
      ],
      "name": "purchaseItem",
      "outputs": [],
      "stateMutability": "payable",
      "type": "function"
    },
    {
      "inputs": [
        {
          "internalType": "uint256",
          "name": "_itemId",
          "type": "uint256"
        }
      ],
      "name": "reward",
      "outputs": [],
      "stateMutability": "payable",
      "type": "function"
    },
    {
      "inputs": [
        {
          "internalType": "uint256",
          "name": "_itemId",
          "type": "uint256"
        },
        {
          "internalType": "uint256",
          "name": "_price",
          "type": "uint256"
        }
      ],
      "name": "sellItem",
      "outputs": [],
      "stateMutability": "nonpayable",
      "type": "function"
    }
  ],
  "bytecode": "0x60c0604052662386f26fc100006002553480156200001c57600080fd5b50604051620054c2380380620054c28339818101604052810190620000429190620000a7565b60016000819055503373ffffffffffffffffffffffffffffffffffffffff1660808173ffffffffffffffffffffffffffffffffffffffff1660601b815250508060a0818152505050620000f7565b600081519050620000a181620000dd565b92915050565b600060208284031215620000ba57600080fd5b6000620000ca8482850162000090565b91505092915050565b6000819050919050565b620000e881620000d3565b8114620000f457600080fd5b50565b60805160601c60a05161537f6200014360003960008181610f960152818161139801528181611c360152612f2401526000818161136e01528181611cec01526134dd015261537f6000f3fe6080604052600436106101095760003560e01c806396b5a75511610095578063c63282c811610064578063c63282c81461035a578063ca7dd37514610383578063d38ea5bf146103c0578063f20e5e35146103dc578063fa00afc71461041957610109565b806396b5a755146102a75780639b1225c4146102d0578063a9fb763c146102f9578063bfb231d21461031557610109565b806365e17c9d116100dc57806365e17c9d146101b95780636bfb0d01146101e45780637fd6f15c1461020f57806380bc38c21461023a57806381bf47181461027c57610109565b806307c9cd451461010e5780632d923561146101375780633f1ffcec14610160578063454a2ab31461019d575b600080fd5b34801561011a57600080fd5b50610135600480360381019061013091906140fc565b610442565b005b34801561014357600080fd5b5061015e600480360381019061015991906141b0565b6108ad565b005b34801561016c57600080fd5b5061018760048036038101906101829190614125565b610d0d565b6040516101949190614a63565b60405180910390f35b6101b760048036038101906101b291906140fc565b610d32565b005b3480156101c557600080fd5b506101ce61136c565b6040516101db91906146f7565b60405180910390f35b3480156101f057600080fd5b506101f9611390565b6040516102069190614a63565b60405180910390f35b34801561021b57600080fd5b50610224611396565b6040516102319190614a63565b60405180910390f35b34801561024657600080fd5b50610261600480360381019061025c91906140fc565b6113ba565b60405161027396959493929190614712565b60405180910390f35b34801561028857600080fd5b5061029161145f565b60405161029e91906146dc565b60405180910390f35b3480156102b357600080fd5b506102ce60048036038101906102c991906140fc565b611467565b005b3480156102dc57600080fd5b506102f760048036038101906102f291906140fc565b6119eb565b005b610313600480360381019061030e91906140fc565b6121ef565b005b34801561032157600080fd5b5061033c600480360381019061033791906140fc565b612459565b60405161035199989796959493929190614a7e565b60405180910390f35b34801561036657600080fd5b50610381600480360381019061037c9190614161565b612521565b005b34801561038f57600080fd5b506103aa60048036038101906103a591906140fc565b612f1e565b6040516103b79190614a63565b60405180910390f35b6103da60048036038101906103d591906140fc565b612f81565b005b3480156103e857600080fd5b5061040360048036038101906103fe91906140fc565b613729565b6040516104109190614a41565b60405180910390f35b34801561042557600080fd5b50610440600480360381019061043b91906140ad565b613b31565b005b8060006003600083815260200190815260200160002060405180610120016040529081600082015481526020016001820160009054906101000a900473ffffffffffffffffffffffffffffffffffffffff1673ffffffffffffffffffffffffffffffffffffffff1673ffffffffffffffffffffffffffffffffffffffff16815260200160028201548152602001600382015481526020016004820160009054906101000a900473ffffffffffffffffffffffffffffffffffffffff1673ffffffffffffffffffffffffffffffffffffffff1673ffffffffffffffffffffffffffffffffffffffff1681526020016005820160009054906101000a900473ffffffffffffffffffffffffffffffffffffffff1673ffffffffffffffffffffffffffffffffffffffff1673ffffffffffffffffffffffffffffffffffffffff1681526020016005820160149054906101000a900460ff16151515158152602001600682015481526020016007820160009054906101000a900460ff1615151515815250509050806080015173ffffffffffffffffffffffffffffffffffffffff163373ffffffffffffffffffffffffffffffffffffffff1614610638576040517f08c379a000000000000000000000000000000000000000000000000000000000815260040161062f90614981565b60405180910390fd5b60006003600085815260200190815260200160002090508060010160009054906101000a900473ffffffffffffffffffffffffffffffffffffffff1673ffffffffffffffffffffffffffffffffffffffff166323b872dd308360040160009054906101000a900473ffffffffffffffffffffffffffffffffffffffff1684600201546040518463ffffffff1660e01b81526004016106d893929190614773565b600060405180830381600087803b1580156106f257600080fd5b505af1158015610706573d6000803e3d6000fd5b5050505060018160050160146101000a81548160ff02191690831515021790555060008160010160009054906101000a900473ffffffffffffffffffffffffffffffffffffffff1673ffffffffffffffffffffffffffffffffffffffff16636352211e83600201546040518263ffffffff1660e01b815260040161078a9190614a63565b60206040518083038186803b1580156107a257600080fd5b505afa1580156107b6573d6000803e3d6000fd5b505050506040513d601f19601f820116820180604052508101906107da9190614084565b90508073ffffffffffffffffffffffffffffffffffffffff168260040160009054906101000a900473ffffffffffffffffffffffffffffffffffffffff1673ffffffffffffffffffffffffffffffffffffffff168360010160009054906101000a900473ffffffffffffffffffffffffffffffffffffffff1673ffffffffffffffffffffffffffffffffffffffff167f039c6bebbd4eb869ed654466ceda0f755f91f7f0ad1a360bb19bd3556649883c88866002015460405161089e929190614b0b565b60405180910390a45050505050565b600260005414156108f3576040517f08c379a00000000000000000000000000000000000000000000000000000000081526004016108ea90614a21565b60405180910390fd5b60026000819055508160006003600083815260200190815260200160002060405180610120016040529081600082015481526020016001820160009054906101000a900473ffffffffffffffffffffffffffffffffffffffff1673ffffffffffffffffffffffffffffffffffffffff1673ffffffffffffffffffffffffffffffffffffffff16815260200160028201548152602001600382015481526020016004820160009054906101000a900473ffffffffffffffffffffffffffffffffffffffff1673ffffffffffffffffffffffffffffffffffffffff1673ffffffffffffffffffffffffffffffffffffffff1681526020016005820160009054906101000a900473ffffffffffffffffffffffffffffffffffffffff1673ffffffffffffffffffffffffffffffffffffffff1673ffffffffffffffffffffffffffffffffffffffff1681526020016005820160149054906101000a900460ff16151515158152602001600682015481526020016007820160009054906101000a900460ff1615151515815250509050806080015173ffffffffffffffffffffffffffffffffffffffff163373ffffffffffffffffffffffffffffffffffffffff1614610af1576040517f08c379a0000000000000000000000000000000000000000000000000000000008152600401610ae890614981565b60405180910390fd5b83600081118015610b0457506001548111155b610b43576040517f08c379a0000000000000000000000000000000000000000000000000000000008152600401610b3a90614941565b60405180910390fd5b60006003600087815260200190815260200160002090508060050160149054906101000a900460ff16610bab576040517f08c379a0000000000000000000000000000000000000000000000000000000008152600401610ba290614841565b60405180910390fd5b8060010160009054906101000a900473ffffffffffffffffffffffffffffffffffffffff1673ffffffffffffffffffffffffffffffffffffffff166323b872dd333084600201546040518463ffffffff1660e01b8152600401610c10939291906147aa565b600060405180830381600087803b158015610c2a57600080fd5b505af1158015610c3e573d6000803e3d6000fd5b5050505060008160050160146101000a81548160ff0219169083151502179055508481600301819055503373ffffffffffffffffffffffffffffffffffffffff168160010160009054906101000a900473ffffffffffffffffffffffffffffffffffffffff1673ffffffffffffffffffffffffffffffffffffffff167f61794f600979061b32f0001cce9e5a1f5631d6eb06ba54fad8730fac89434b478360000154846002015489604051610cf593929190614b79565b60405180910390a35050505060016000819055505050565b6005602052816000526040600020602052806000526040600020600091509150505481565b8060006003600083815260200190815260200160002060405180610120016040529081600082015481526020016001820160009054906101000a900473ffffffffffffffffffffffffffffffffffffffff1673ffffffffffffffffffffffffffffffffffffffff1673ffffffffffffffffffffffffffffffffffffffff16815260200160028201548152602001600382015481526020016004820160009054906101000a900473ffffffffffffffffffffffffffffffffffffffff1673ffffffffffffffffffffffffffffffffffffffff1673ffffffffffffffffffffffffffffffffffffffff1681526020016005820160009054906101000a900473ffffffffffffffffffffffffffffffffffffffff1673ffffffffffffffffffffffffffffffffffffffff1673ffffffffffffffffffffffffffffffffffffffff1681526020016005820160149054906101000a900460ff16151515158152602001600682015481526020016007820160009054906101000a900460ff1615151515815250509050806080015173ffffffffffffffffffffffffffffffffffffffff163373ffffffffffffffffffffffffffffffffffffffff161415610f29576040517f08c379a0000000000000000000000000000000000000000000000000000000008152600401610f20906148a1565b60405180910390fd5b82600081118015610f3c57506001548111155b610f7b576040517f08c379a0000000000000000000000000000000000000000000000000000000008152600401610f7290614941565b60405180910390fd5b600060046000868152602001908152602001600020905060647f00000000000000000000000000000000000000000000000000000000000000006064610fc19190614c86565b8260010160009054906101000a90046fffffffffffffffffffffffffffffffff166fffffffffffffffffffffffffffffffff16610ffe9190614d0d565b6110089190614cdc565b34101561104a576040517f08c379a000000000000000000000000000000000000000000000000000000000815260040161104190614a01565b60405180910390fd5b8060040160149054906101000a900460ff1661109b576040517f08c379a0000000000000000000000000000000000000000000000000000000008152600401611092906148e1565b60405180910390fd5b60006005600087815260200190815260200160002060003373ffffffffffffffffffffffffffffffffffffffff1673ffffffffffffffffffffffffffffffffffffffff16815260200190815260200160002054111561118c573373ffffffffffffffffffffffffffffffffffffffff166108fc6005600088815260200190815260200160002060003373ffffffffffffffffffffffffffffffffffffffff1673ffffffffffffffffffffffffffffffffffffffff168152602001908152602001600020549081150290604051600060405180830381858888f1935050505015801561118a573d6000803e3d6000fd5b505b346005600087815260200190815260200160002060003373ffffffffffffffffffffffffffffffffffffffff1673ffffffffffffffffffffffffffffffffffffffff1681526020019081526020016000208190555060008160050180549050141561124257348160030181905550338160040160006101000a81548173ffffffffffffffffffffffffffffffffffffffff021916908373ffffffffffffffffffffffffffffffffffffffff1602179055506112d5565b34816003015410611288576040517f08c379a000000000000000000000000000000000000000000000000000000000815260040161127f90614921565b60405180910390fd5b348160030181905550338160040160006101000a81548173ffffffffffffffffffffffffffffffffffffffff021916908373ffffffffffffffffffffffffffffffffffffffff1602179055505b80600601339080600181540180825580915050600190039060005260206000200160009091909190916101000a81548173ffffffffffffffffffffffffffffffffffffffff021916908373ffffffffffffffffffffffffffffffffffffffff160217905550806005013490806001815401808255809150506001900390600052602060002001600090919091909150555050505050565b7f000000000000000000000000000000000000000000000000000000000000000081565b60015481565b7f000000000000000000000000000000000000000000000000000000000000000081565b60046020528060005260406000206000915090508060000160009054906101000a900473ffffffffffffffffffffffffffffffffffffffff16908060010160009054906101000a90046fffffffffffffffffffffffffffffffff16908060020154908060030154908060040160009054906101000a900473ffffffffffffffffffffffffffffffffffffffff16908060040160149054906101000a900460ff16905086565b600033905090565b8060008111801561147a57506001548111155b6114b9576040517f08c379a00000000000000000000000000000000000000000000000000000000081526004016114b090614941565b60405180910390fd5b600060036000848152602001908152602001600020905060006004600085815260200190815260200160002090503373ffffffffffffffffffffffffffffffffffffffff168160000160009054906101000a900473ffffffffffffffffffffffffffffffffffffffff1673ffffffffffffffffffffffffffffffffffffffff1614611579576040517f08c379a0000000000000000000000000000000000000000000000000000000008152600401611570906149c1565b60405180910390fd5b8060040160149054906101000a900460ff166115ca576040517f08c379a00000000000000000000000000000000000000000000000000000000081526004016115c1906148e1565b60405180910390fd5b60008160040160146101000a81548160ff02191690831515021790555060008260070160006101000a81548160ff02191690831515021790555060005b816006018054905081101561178c57816006018181548110611652577f4e487b7100000000000000000000000000000000000000000000000000000000600052603260045260246000fd5b9060005260206000200160009054906101000a900473ffffffffffffffffffffffffffffffffffffffff1673ffffffffffffffffffffffffffffffffffffffff166108fc6005600088815260200190815260200160002060008560060185815481106116e7577f4e487b7100000000000000000000000000000000000000000000000000000000600052603260045260246000fd5b9060005260206000200160009054906101000a900473ffffffffffffffffffffffffffffffffffffffff1673ffffffffffffffffffffffffffffffffffffffff1673ffffffffffffffffffffffffffffffffffffffff168152602001908152602001600020549081150290604051600060405180830381858888f19350505050158015611778573d6000803e3d6000fd5b50808061178490614e7d565b915050611607565b508160010160009054906101000a900473ffffffffffffffffffffffffffffffffffffffff1673ffffffffffffffffffffffffffffffffffffffff166323b872dd308360000160009054906101000a900473ffffffffffffffffffffffffffffffffffffffff1685600201546040518463ffffffff1660e01b815260040161181693929190614773565b600060405180830381600087803b15801561183057600080fd5b505af1158015611844573d6000803e3d6000fd5b5050505060018260050160146101000a81548160ff02191690831515021790555060008260010160009054906101000a900473ffffffffffffffffffffffffffffffffffffffff1673ffffffffffffffffffffffffffffffffffffffff16636352211e84600201546040518263ffffffff1660e01b81526004016118c89190614a63565b60206040518083038186803b1580156118e057600080fd5b505afa1580156118f4573d6000803e3d6000fd5b505050506040513d601f19601f820116820180604052508101906119189190614084565b90508073ffffffffffffffffffffffffffffffffffffffff168260000160009054906101000a900473ffffffffffffffffffffffffffffffffffffffff1673ffffffffffffffffffffffffffffffffffffffff168460010160009054906101000a900473ffffffffffffffffffffffffffffffffffffffff1673ffffffffffffffffffffffffffffffffffffffff167fadcef2b3bf74c52412485f58d01fb018f0c43f9fd9c50b82bc3243aba0803f7d8887600201546040516119dc929190614b0b565b60405180910390a45050505050565b60006004600083815260200190815260200160002090508060020154421015611a49576040517f08c379a0000000000000000000000000000000000000000000000000000000008152600401611a4090614901565b60405180910390fd5b8060000160009054906101000a900473ffffffffffffffffffffffffffffffffffffffff1673ffffffffffffffffffffffffffffffffffffffff163373ffffffffffffffffffffffffffffffffffffffff1614611adb576040517f08c379a0000000000000000000000000000000000000000000000000000000008152600401611ad2906149c1565b60405180910390fd5b8060040160149054906101000a900460ff16611b2c576040517f08c379a0000000000000000000000000000000000000000000000000000000008152600401611b23906148e1565b60405180910390fd5b60008160040160146101000a81548160ff0219169083151502179055506000600360008481526020019081526020016000209050600082600501805490501415611c30578060010160009054906101000a900473ffffffffffffffffffffffffffffffffffffffff1673ffffffffffffffffffffffffffffffffffffffff166323b872dd308460000160009054906101000a900473ffffffffffffffffffffffffffffffffffffffff1684600201546040518463ffffffff1660e01b8152600401611bf993929190614773565b600060405180830381600087803b158015611c1357600080fd5b505af1158015611c27573d6000803e3d6000fd5b50505050612055565b600060647f00000000000000000000000000000000000000000000000000000000000000008460030154611c649190614d0d565b611c6e9190614cdc565b90508260000160009054906101000a900473ffffffffffffffffffffffffffffffffffffffff1673ffffffffffffffffffffffffffffffffffffffff166108fc828560030154611cbe9190614d67565b9081150290604051600060405180830381858888f19350505050158015611ce9573d6000803e3d6000fd5b507f000000000000000000000000000000000000000000000000000000000000000073ffffffffffffffffffffffffffffffffffffffff166108fc829081150290604051600060405180830381858888f19350505050158015611d50573d6000803e3d6000fd5b5060005b8360060180549050811015611f97578360040160009054906101000a900473ffffffffffffffffffffffffffffffffffffffff1673ffffffffffffffffffffffffffffffffffffffff16846006018281548110611dda577f4e487b7100000000000000000000000000000000000000000000000000000000600052603260045260246000fd5b9060005260206000200160009054906101000a900473ffffffffffffffffffffffffffffffffffffffff1673ffffffffffffffffffffffffffffffffffffffff1614611f8457836006018181548110611e5c577f4e487b7100000000000000000000000000000000000000000000000000000000600052603260045260246000fd5b9060005260206000200160009054906101000a900473ffffffffffffffffffffffffffffffffffffffff1673ffffffffffffffffffffffffffffffffffffffff166108fc600560008881526020019081526020016000206000876006018581548110611ef1577f4e487b7100000000000000000000000000000000000000000000000000000000600052603260045260246000fd5b9060005260206000200160009054906101000a900473ffffffffffffffffffffffffffffffffffffffff1673ffffffffffffffffffffffffffffffffffffffff1673ffffffffffffffffffffffffffffffffffffffff168152602001908152602001600020549081150290604051600060405180830381858888f19350505050158015611f82573d6000803e3d6000fd5b505b8080611f8f90614e7d565b915050611d54565b508160010160009054906101000a900473ffffffffffffffffffffffffffffffffffffffff1673ffffffffffffffffffffffffffffffffffffffff166323b872dd308560040160009054906101000a900473ffffffffffffffffffffffffffffffffffffffff1685600201546040518463ffffffff1660e01b815260040161202193929190614773565b600060405180830381600087803b15801561203b57600080fd5b505af115801561204f573d6000803e3d6000fd5b50505050505b60008160070160006101000a81548160ff02191690831515021790555060018160050160146101000a81548160ff0219169083151502179055508160040160009054906101000a900473ffffffffffffffffffffffffffffffffffffffff168160040160006101000a81548173ffffffffffffffffffffffffffffffffffffffff021916908373ffffffffffffffffffffffffffffffffffffffff1602179055508160040160009054906101000a900473ffffffffffffffffffffffffffffffffffffffff1673ffffffffffffffffffffffffffffffffffffffff168260000160009054906101000a900473ffffffffffffffffffffffffffffffffffffffff1673ffffffffffffffffffffffffffffffffffffffff168260010160009054906101000a900473ffffffffffffffffffffffffffffffffffffffff1673ffffffffffffffffffffffffffffffffffffffff167ff889f7decc811427ccd0721356e301a01d3a2c2239c32424d4b53c248b075f5386856002015487600301546040516121e293929190614b79565b60405180910390a4505050565b60026000541415612235576040517f08c379a000000000000000000000000000000000000000000000000000000000815260040161222c90614a21565b60405180910390fd5b600260008190555060008111801561224f57506001548111155b61228e576040517f08c379a000000000000000000000000000000000000000000000000000000000815260040161228590614941565b60405180910390fd5b600060036000838152602001908152602001600020905060025434116122e9576040517f08c379a00000000000000000000000000000000000000000000000000000000081526004016122e0906149a1565b60405180910390fd5b6002548160060160008282546122ff9190614c86565b925050819055508060050160009054906101000a900473ffffffffffffffffffffffffffffffffffffffff1673ffffffffffffffffffffffffffffffffffffffff166108fc6002549081150290604051600060405180830381858888f19350505050158015612372573d6000803e3d6000fd5b503373ffffffffffffffffffffffffffffffffffffffff168160050160009054906101000a900473ffffffffffffffffffffffffffffffffffffffff1673ffffffffffffffffffffffffffffffffffffffff168260010160009054906101000a900473ffffffffffffffffffffffffffffffffffffffff1673ffffffffffffffffffffffffffffffffffffffff167f571b315400e723dbcd90ac311880ecf83ed532bcdca6ace7c13d614a633c96bf85856002015486600301546002548860060154604051612445959493929190614bb0565b60405180910390a450600160008190555050565b60036020528060005260406000206000915090508060000154908060010160009054906101000a900473ffffffffffffffffffffffffffffffffffffffff16908060020154908060030154908060040160009054906101000a900473ffffffffffffffffffffffffffffffffffffffff16908060050160009054906101000a900473ffffffffffffffffffffffffffffffffffffffff16908060050160149054906101000a900460ff16908060060154908060070160009054906101000a900460ff16905089565b8260006003600083815260200190815260200160002060405180610120016040529081600082015481526020016001820160009054906101000a900473ffffffffffffffffffffffffffffffffffffffff1673ffffffffffffffffffffffffffffffffffffffff1673ffffffffffffffffffffffffffffffffffffffff16815260200160028201548152602001600382015481526020016004820160009054906101000a900473ffffffffffffffffffffffffffffffffffffffff1673ffffffffffffffffffffffffffffffffffffffff1673ffffffffffffffffffffffffffffffffffffffff1681526020016005820160009054906101000a900473ffffffffffffffffffffffffffffffffffffffff1673ffffffffffffffffffffffffffffffffffffffff1673ffffffffffffffffffffffffffffffffffffffff1681526020016005820160149054906101000a900460ff16151515158152602001600682015481526020016007820160009054906101000a900460ff1615151515815250509050806080015173ffffffffffffffffffffffffffffffffffffffff163373ffffffffffffffffffffffffffffffffffffffff1614612717576040517f08c379a000000000000000000000000000000000000000000000000000000000815260040161270e90614981565b60405180910390fd5b8460006003600083815260200190815260200160002060405180610120016040529081600082015481526020016001820160009054906101000a900473ffffffffffffffffffffffffffffffffffffffff1673ffffffffffffffffffffffffffffffffffffffff1673ffffffffffffffffffffffffffffffffffffffff16815260200160028201548152602001600382015481526020016004820160009054906101000a900473ffffffffffffffffffffffffffffffffffffffff1673ffffffffffffffffffffffffffffffffffffffff1673ffffffffffffffffffffffffffffffffffffffff1681526020016005820160009054906101000a900473ffffffffffffffffffffffffffffffffffffffff1673ffffffffffffffffffffffffffffffffffffffff1673ffffffffffffffffffffffffffffffffffffffff1681526020016005820160149054906101000a900460ff16151515158152602001600682015481526020016007820160009054906101000a900460ff16151515158152505090508060c00151156128e0576040517f08c379a00000000000000000000000000000000000000000000000000000000081526004016128d790614961565b60405180910390fd5b8660006003600083815260200190815260200160002060405180610120016040529081600082015481526020016001820160009054906101000a900473ffffffffffffffffffffffffffffffffffffffff1673ffffffffffffffffffffffffffffffffffffffff1673ffffffffffffffffffffffffffffffffffffffff16815260200160028201548152602001600382015481526020016004820160009054906101000a900473ffffffffffffffffffffffffffffffffffffffff1673ffffffffffffffffffffffffffffffffffffffff1673ffffffffffffffffffffffffffffffffffffffff1681526020016005820160009054906101000a900473ffffffffffffffffffffffffffffffffffffffff1673ffffffffffffffffffffffffffffffffffffffff1673ffffffffffffffffffffffffffffffffffffffff1681526020016005820160149054906101000a900460ff16151515158152602001600682015481526020016007820160009054906101000a900460ff161515151581525050905080610100015115612aaa576040517f08c379a0000000000000000000000000000000000000000000000000000000008152600401612aa190614881565b60405180910390fd5b88600081118015612abd57506001548111155b612afc576040517f08c379a0000000000000000000000000000000000000000000000000000000008152600401612af390614941565b60405180910390fd5b6000600360008c8152602001908152602001600020905060018160070160006101000a81548160ff02191690831515021790555060008a6fffffffffffffffffffffffffffffffff1611612b85576040517f08c379a0000000000000000000000000000000000000000000000000000000008152600401612b7c90614821565b60405180910390fd5b60008911612bc8576040517f08c379a0000000000000000000000000000000000000000000000000000000008152600401612bbf906148c1565b60405180910390fd5b60006040518061010001604052803373ffffffffffffffffffffffffffffffffffffffff1681526020018c6fffffffffffffffffffffffffffffffff1681526020018b815260200160008152602001600073ffffffffffffffffffffffffffffffffffffffff168152602001600115158152602001600067ffffffffffffffff811115612c7e577f4e487b7100000000000000000000000000000000000000000000000000000000600052604160045260246000fd5b604051908082528060200260200182016040528015612cac5781602001602082028036833780820191505090505b508152602001600067ffffffffffffffff811115612cf3577f4e487b7100000000000000000000000000000000000000000000000000000000600052604160045260246000fd5b604051908082528060200260200182016040528015612d215781602001602082028036833780820191505090505b50815250905080600460008e815260200190815260200160002060008201518160000160006101000a81548173ffffffffffffffffffffffffffffffffffffffff021916908373ffffffffffffffffffffffffffffffffffffffff16021790555060208201518160010160006101000a8154816fffffffffffffffffffffffffffffffff02191690836fffffffffffffffffffffffffffffffff160217905550604082015181600201556060820151816003015560808201518160040160006101000a81548173ffffffffffffffffffffffffffffffffffffffff021916908373ffffffffffffffffffffffffffffffffffffffff16021790555060a08201518160040160146101000a81548160ff02191690831515021790555060c0820151816005019080519060200190612e58929190613ea2565b5060e0820151816006019080519060200190612e75929190613eef565b509050503373ffffffffffffffffffffffffffffffffffffffff168260010160009054906101000a900473ffffffffffffffffffffffffffffffffffffffff1673ffffffffffffffffffffffffffffffffffffffff167f9dcd40d8b44ed216426d6192509ebc05ff354c16240aa5f1c406cefb8b892f5d846000015485600201548f8f604051612f089493929190614b34565b60405180910390a3505050505050505050505050565b600060647f00000000000000000000000000000000000000000000000000000000000000006064612f4f9190614c86565b6003600085815260200190815260200160002060030154612f709190614d0d565b612f7a9190614cdc565b9050919050565b60026000541415612fc7576040517f08c379a0000000000000000000000000000000000000000000000000000000008152600401612fbe90614a21565b60405180910390fd5b60026000819055508060006003600083815260200190815260200160002060405180610120016040529081600082015481526020016001820160009054906101000a900473ffffffffffffffffffffffffffffffffffffffff1673ffffffffffffffffffffffffffffffffffffffff1673ffffffffffffffffffffffffffffffffffffffff16815260200160028201548152602001600382015481526020016004820160009054906101000a900473ffffffffffffffffffffffffffffffffffffffff1673ffffffffffffffffffffffffffffffffffffffff1673ffffffffffffffffffffffffffffffffffffffff1681526020016005820160009054906101000a900473ffffffffffffffffffffffffffffffffffffffff1673ffffffffffffffffffffffffffffffffffffffff1673ffffffffffffffffffffffffffffffffffffffff1681526020016005820160149054906101000a900460ff16151515158152602001600682015481526020016007820160009054906101000a900460ff161515151581525050905080610100015115613199576040517f08c379a000000000000000000000000000000000000000000000000000000000815260040161319090614881565b60405180910390fd5b8260006003600083815260200190815260200160002060405180610120016040529081600082015481526020016001820160009054906101000a900473ffffffffffffffffffffffffffffffffffffffff1673ffffffffffffffffffffffffffffffffffffffff1673ffffffffffffffffffffffffffffffffffffffff16815260200160028201548152602001600382015481526020016004820160009054906101000a900473ffffffffffffffffffffffffffffffffffffffff1673ffffffffffffffffffffffffffffffffffffffff1673ffffffffffffffffffffffffffffffffffffffff1681526020016005820160009054906101000a900473ffffffffffffffffffffffffffffffffffffffff1673ffffffffffffffffffffffffffffffffffffffff1673ffffffffffffffffffffffffffffffffffffffff1681526020016005820160149054906101000a900460ff16151515158152602001600682015481526020016007820160009054906101000a900460ff16151515158152505090508060c0015115613362576040517f08c379a000000000000000000000000000000000000000000000000000000000815260040161335990614961565b60405180910390fd5b600061336d86612f1e565b9050600060036000888152602001908152602001600020905060008711801561339857506001548711155b6133d7576040517f08c379a00000000000000000000000000000000000000000000000000000000081526004016133ce90614941565b60405180910390fd5b8134101561341a576040517f08c379a000000000000000000000000000000000000000000000000000000000815260040161341190614861565b60405180910390fd5b8060050160149054906101000a900460ff161561346c576040517f08c379a0000000000000000000000000000000000000000000000000000000008152600401613463906147e1565b60405180910390fd5b8060040160009054906101000a900473ffffffffffffffffffffffffffffffffffffffff1673ffffffffffffffffffffffffffffffffffffffff166108fc82600301549081150290604051600060405180830381858888f193505050501580156134da573d6000803e3d6000fd5b507f000000000000000000000000000000000000000000000000000000000000000073ffffffffffffffffffffffffffffffffffffffff166108fc8260030154846135259190614d67565b9081150290604051600060405180830381858888f19350505050158015613550573d6000803e3d6000fd5b5060018160050160146101000a81548160ff0219169083151502179055508060010160009054906101000a900473ffffffffffffffffffffffffffffffffffffffff1673ffffffffffffffffffffffffffffffffffffffff166323b872dd303384600201546040518463ffffffff1660e01b81526004016135d3939291906147aa565b600060405180830381600087803b1580156135ed57600080fd5b505af1158015613601573d6000803e3d6000fd5b505050503373ffffffffffffffffffffffffffffffffffffffff168160040160009054906101000a900473ffffffffffffffffffffffffffffffffffffffff1673ffffffffffffffffffffffffffffffffffffffff168260010160009054906101000a900473ffffffffffffffffffffffffffffffffffffffff1673ffffffffffffffffffffffffffffffffffffffff167f8b4c9c8a607d67b321582dd8461041b1dc2ceeca70c8b7f37f8e02095cf2e76d8a856002015486600301546040516136cd93929190614b79565b60405180910390a4338160040160006101000a81548173ffffffffffffffffffffffffffffffffffffffff021916908373ffffffffffffffffffffffffffffffffffffffff160217905550505050505050600160008190555050565b613731613f79565b60006003600084815260200190815260200160002060405180610120016040529081600082015481526020016001820160009054906101000a900473ffffffffffffffffffffffffffffffffffffffff1673ffffffffffffffffffffffffffffffffffffffff1673ffffffffffffffffffffffffffffffffffffffff16815260200160028201548152602001600382015481526020016004820160009054906101000a900473ffffffffffffffffffffffffffffffffffffffff1673ffffffffffffffffffffffffffffffffffffffff1673ffffffffffffffffffffffffffffffffffffffff1681526020016005820160009054906101000a900473ffffffffffffffffffffffffffffffffffffffff1673ffffffffffffffffffffffffffffffffffffffff1673ffffffffffffffffffffffffffffffffffffffff1681526020016005820160149054906101000a900460ff16151515158152602001600682015481526020016007820160009054906101000a900460ff16151515158152505090508061010001516138f9576040517f08c379a00000000000000000000000000000000000000000000000000000000081526004016138f0906149e1565b60405180910390fd5b600060046000858152602001908152602001600020604051806101000160405290816000820160009054906101000a900473ffffffffffffffffffffffffffffffffffffffff1673ffffffffffffffffffffffffffffffffffffffff1673ffffffffffffffffffffffffffffffffffffffff1681526020016001820160009054906101000a90046fffffffffffffffffffffffffffffffff166fffffffffffffffffffffffffffffffff166fffffffffffffffffffffffffffffffff16815260200160028201548152602001600382015481526020016004820160009054906101000a900473ffffffffffffffffffffffffffffffffffffffff1673ffffffffffffffffffffffffffffffffffffffff1673ffffffffffffffffffffffffffffffffffffffff1681526020016004820160149054906101000a900460ff1615151515815260200160058201805480602002602001604051908101604052809291908181526020018280548015613a8e57602002820191906000526020600020905b815481526020019060010190808311613a7a575b5050505050815260200160068201805480602002602001604051908101604052809291908181526020018280548015613b1c57602002820191906000526020600020905b8160009054906101000a900473ffffffffffffffffffffffffffffffffffffffff1673ffffffffffffffffffffffffffffffffffffffff1681526020019060010190808311613ad2575b50505050508152505090508092505050919050565b60026000541415613b77576040517f08c379a0000000000000000000000000000000000000000000000000000000008152600401613b6e90614a21565b60405180910390fd5b600260008190555060008111613bc2576040517f08c379a0000000000000000000000000000000000000000000000000000000008152600401613bb990614801565b60405180910390fd5b60016000815480929190613bd590614e7d565b91905055508273ffffffffffffffffffffffffffffffffffffffff166323b872dd3330856040518463ffffffff1660e01b8152600401613c17939291906147aa565b600060405180830381600087803b158015613c3157600080fd5b505af1158015613c45573d6000803e3d6000fd5b5050505060405180610120016040528060015481526020018473ffffffffffffffffffffffffffffffffffffffff1681526020018381526020018281526020013373ffffffffffffffffffffffffffffffffffffffff1681526020013373ffffffffffffffffffffffffffffffffffffffff16815260200160001515815260200160008152602001600015158152506003600060015481526020019081526020016000206000820151816000015560208201518160010160006101000a81548173ffffffffffffffffffffffffffffffffffffffff021916908373ffffffffffffffffffffffffffffffffffffffff160217905550604082015181600201556060820151816003015560808201518160040160006101000a81548173ffffffffffffffffffffffffffffffffffffffff021916908373ffffffffffffffffffffffffffffffffffffffff16021790555060a08201518160050160006101000a81548173ffffffffffffffffffffffffffffffffffffffff021916908373ffffffffffffffffffffffffffffffffffffffff16021790555060c08201518160050160146101000a81548160ff02191690831515021790555060e082015181600601556101008201518160070160006101000a81548160ff0219169083151502179055509050503373ffffffffffffffffffffffffffffffffffffffff168373ffffffffffffffffffffffffffffffffffffffff167f655a0cf9c8db81512be9a76dc1c5ae5380b8816ce6ad659cd61b715e2999d59a6001548585604051613e8d93929190614b79565b60405180910390a36001600081905550505050565b828054828255906000526020600020908101928215613ede579160200282015b82811115613edd578251825591602001919060010190613ec2565b5b509050613eeb9190613ffe565b5090565b828054828255906000526020600020908101928215613f68579160200282015b82811115613f675782518260006101000a81548173ffffffffffffffffffffffffffffffffffffffff021916908373ffffffffffffffffffffffffffffffffffffffff16021790555091602001919060010190613f0f565b5b509050613f759190613ffe565b5090565b604051806101000160405280600073ffffffffffffffffffffffffffffffffffffffff16815260200160006fffffffffffffffffffffffffffffffff1681526020016000815260200160008152602001600073ffffffffffffffffffffffffffffffffffffffff16815260200160001515815260200160608152602001606081525090565b5b80821115614017576000816000905550600101613fff565b5090565b60008135905061402a816152ed565b92915050565b60008151905061403f816152ed565b92915050565b60008135905061405481615304565b92915050565b6000813590506140698161531b565b92915050565b60008135905061407e81615332565b92915050565b60006020828403121561409657600080fd5b60006140a484828501614030565b91505092915050565b6000806000606084860312156140c257600080fd5b60006140d086828701614045565b93505060206140e18682870161406f565b92505060406140f28682870161406f565b9150509250925092565b60006020828403121561410e57600080fd5b600061411c8482850161406f565b91505092915050565b6000806040838503121561413857600080fd5b60006141468582860161406f565b92505060206141578582860161401b565b9150509250929050565b60008060006060848603121561417657600080fd5b60006141848682870161406f565b93505060206141958682870161405a565b92505060406141a68682870161406f565b9150509250925092565b600080604083850312156141c357600080fd5b60006141d18582860161406f565b92505060206141e28582860161406f565b9150509250929050565b60006141f88383614249565b60208301905092915050565b600061421083836146be565b60208301905092915050565b61422581614e23565b82525050565b61423481614dad565b82525050565b61424381614dad565b82525050565b61425281614d9b565b82525050565b61426181614d9b565b82525050565b600061427282614c23565b61427c8185614c53565b935061428783614c03565b8060005b838110156142b857815161429f88826141ec565b97506142aa83614c39565b92505060018101905061428b565b5085935050505092915050565b60006142d082614c2e565b6142da8185614c64565b93506142e583614c13565b8060005b838110156143165781516142fd8882614204565b975061430883614c46565b9250506001810190506142e9565b5085935050505092915050565b61432c81614dbf565b82525050565b61433b81614dbf565b82525050565b61434a81614e35565b82525050565b600061435d601183614c75565b915061436882614f24565b602082019050919050565b6000614380601f83614c75565b915061438b82614f4d565b602082019050919050565b60006143a3602383614c75565b91506143ae82614f76565b604082019050919050565b60006143c6601983614c75565b91506143d182614fc5565b602082019050919050565b60006143e9603383614c75565b91506143f482614fee565b604082019050919050565b600061440c601783614c75565b91506144178261503d565b602082019050919050565b600061442f602083614c75565b915061443a82615066565b602082019050919050565b6000614452601683614c75565b915061445d8261508f565b602082019050919050565b6000614475601283614c75565b9150614480826150b8565b602082019050919050565b6000614498601583614c75565b91506144a3826150e1565b602082019050919050565b60006144bb602783614c75565b91506144c68261510a565b604082019050919050565b60006144de601283614c75565b91506144e982615159565b602082019050919050565b6000614501601183614c75565b915061450c82615182565b602082019050919050565b6000614524601c83614c75565b915061452f826151ab565b602082019050919050565b6000614547602483614c75565b9150614552826151d4565b604082019050919050565b600061456a600a83614c75565b915061457582615223565b602082019050919050565b600061458d601683614c75565b91506145988261524c565b602082019050919050565b60006145b0602c83614c75565b91506145bb82615275565b604082019050919050565b60006145d3601f83614c75565b91506145de826152c4565b602082019050919050565b600061010083016000830151614602600086018261422b565b50602083015161461560208601826146a0565b50604083015161462860408601826146be565b50606083015161463b60608601826146be565b50608083015161464e608086018261422b565b5060a083015161466160a0860182614323565b5060c083015184820360c086015261467982826142c5565b91505060e083015184820360e08601526146938282614267565b9150508091505092915050565b6146a981614ddd565b82525050565b6146b881614ddd565b82525050565b6146c781614e19565b82525050565b6146d681614e19565b82525050565b60006020820190506146f16000830184614258565b92915050565b600060208201905061470c600083018461423a565b92915050565b600060c082019050614727600083018961423a565b61473460208301886146af565b61474160408301876146cd565b61474e60608301866146cd565b61475b608083018561423a565b61476860a0830184614332565b979650505050505050565b60006060820190506147886000830186614258565b614795602083018561421c565b6147a260408301846146cd565b949350505050565b60006060820190506147bf6000830186614258565b6147cc6020830185614258565b6147d960408301846146cd565b949350505050565b600060208201905081810360008301526147fa81614350565b9050919050565b6000602082019050818103600083015261481a81614373565b9050919050565b6000602082019050818103600083015261483a81614396565b9050919050565b6000602082019050818103600083015261485a816143b9565b9050919050565b6000602082019050818103600083015261487a816143dc565b9050919050565b6000602082019050818103600083015261489a816143ff565b9050919050565b600060208201905081810360008301526148ba81614422565b9050919050565b600060208201905081810360008301526148da81614445565b9050919050565b600060208201905081810360008301526148fa81614468565b9050919050565b6000602082019050818103600083015261491a8161448b565b9050919050565b6000602082019050818103600083015261493a816144ae565b9050919050565b6000602082019050818103600083015261495a816144d1565b9050919050565b6000602082019050818103600083015261497a816144f4565b9050919050565b6000602082019050818103600083015261499a81614517565b9050919050565b600060208201905081810360008301526149ba8161453a565b9050919050565b600060208201905081810360008301526149da8161455d565b9050919050565b600060208201905081810360008301526149fa81614580565b9050919050565b60006020820190508181036000830152614a1a816145a3565b9050919050565b60006020820190508181036000830152614a3a816145c6565b9050919050565b60006020820190508181036000830152614a5b81846145e9565b905092915050565b6000602082019050614a7860008301846146cd565b92915050565b600061012082019050614a94600083018c6146cd565b614aa1602083018b614341565b614aae604083018a6146cd565b614abb60608301896146cd565b614ac8608083018861423a565b614ad560a083018761423a565b614ae260c0830186614332565b614aef60e08301856146cd565b614afd610100830184614332565b9a9950505050505050505050565b6000604082019050614b2060008301856146cd565b614b2d60208301846146cd565b9392505050565b6000608082019050614b4960008301876146cd565b614b5660208301866146cd565b614b6360408301856146af565b614b7060608301846146cd565b95945050505050565b6000606082019050614b8e60008301866146cd565b614b9b60208301856146cd565b614ba860408301846146cd565b949350505050565b600060a082019050614bc560008301886146cd565b614bd260208301876146cd565b614bdf60408301866146cd565b614bec60608301856146cd565b614bf960808301846146cd565b9695505050505050565b6000819050602082019050919050565b6000819050602082019050919050565b600081519050919050565b600081519050919050565b6000602082019050919050565b6000602082019050919050565b600082825260208201905092915050565b600082825260208201905092915050565b600082825260208201905092915050565b6000614c9182614e19565b9150614c9c83614e19565b9250827fffffffffffffffffffffffffffffffffffffffffffffffffffffffffffffffff03821115614cd157614cd0614ec6565b5b828201905092915050565b6000614ce782614e19565b9150614cf283614e19565b925082614d0257614d01614ef5565b5b828204905092915050565b6000614d1882614e19565b9150614d2383614e19565b9250817fffffffffffffffffffffffffffffffffffffffffffffffffffffffffffffffff0483118215151615614d5c57614d5b614ec6565b5b828202905092915050565b6000614d7282614e19565b9150614d7d83614e19565b925082821015614d9057614d8f614ec6565b5b828203905092915050565b6000614da682614df9565b9050919050565b6000614db882614df9565b9050919050565b60008115159050919050565b6000614dd682614d9b565b9050919050565b60006fffffffffffffffffffffffffffffffff82169050919050565b600073ffffffffffffffffffffffffffffffffffffffff82169050919050565b6000819050919050565b6000614e2e82614e59565b9050919050565b6000614e4082614e47565b9050919050565b6000614e5282614df9565b9050919050565b6000614e6482614e6b565b9050919050565b6000614e7682614df9565b9050919050565b6000614e8882614e19565b91507fffffffffffffffffffffffffffffffffffffffffffffffffffffffffffffffff821415614ebb57614eba614ec6565b5b600182019050919050565b7f4e487b7100000000000000000000000000000000000000000000000000000000600052601160045260246000fd5b7f4e487b7100000000000000000000000000000000000000000000000000000000600052601260045260246000fd5b7f6974656d20616c726561647920736f6c64000000000000000000000000000000600082015250565b7f5072696365206d7573742062652067726561746572207468616e207a65726f00600082015250565b7f426173652070726963652073686f756c6420626520677265617465722074686160008201527f6e20300000000000000000000000000000000000000000000000000000000000602082015250565b7f53686f756c6420626520612072652d73656c6c206974656d2e00000000000000600082015250565b7f6e6f7420656e6f75676820657468657220746f20636f766572206974656d207060008201527f7269636520616e64206d61726b65742066656500000000000000000000000000602082015250565b7f546865206974656d20697320696e2061756374696f6e21000000000000000000600082015250565b7f53656c6c65722063616e6e6f742063616c6c20746869732066756e6374696f6e600082015250565b7f496e76616c6964206475726174696f6e2076616c756500000000000000000000600082015250565b7f41756374696f6e206e6f74206163746976650000000000000000000000000000600082015250565b7f61756374696f6e206861736e277420656e6465642e0000000000000000000000600082015250565b7f43757272656e74206d61782062696420697320686967686572207468616e207960008201527f6f75722062696400000000000000000000000000000000000000000000000000602082015250565b7f6974656d20646f65736e27742065786973740000000000000000000000000000600082015250565b7f546865206974656d20697320736f6c6421000000000000000000000000000000600082015250565b7f4f6e6c792063616e2062652063616c6c65642062792073656c6c657200000000600082015250565b7f7265776172642073686f756c642067726561746572207468616e20302e30303060008201527f3145544800000000000000000000000000000000000000000000000000000000602082015250565b7f4e6f742073656c6c657200000000000000000000000000000000000000000000600082015250565b7f4974656d206973206e6f7420696e2061756374696f6e00000000000000000000600082015250565b7f626964207072696365206973206c657373207468616e2062617365207072696360008201527f652b6d61726b6574206665650000000000000000000000000000000000000000602082015250565b7f5265656e7472616e637947756172643a207265656e7472616e742063616c6c00600082015250565b6152f681614d9b565b811461530157600080fd5b50565b61530d81614dcb565b811461531857600080fd5b50565b61532481614ddd565b811461532f57600080fd5b50565b61533b81614e19565b811461534657600080fd5b5056fea26469706673582212203925ea07f76626b536d9d25ff72b0881367d06e64d73e05034d3bb2b5da4839864736f6c63430008040033",
  "linkReferences": {},
  "deployedLinkReferences": {}
}